:020000040010EA
:1000000000600020650110007501100077011000EC
:10001000790110007B0110007D011000000000003C
:100020000000000000000000000000007F01100040
:100030008101100000000000830110008501100004
:100040008701100087011000870110008701100050
:100050008701100087011000870110008701100040
:100060008701100087011000870110008701100030
:100070008701100087011000870110008701100020
:100080008701100087011000870110008701100010
:100090008701100087011000870110008701100000
:1000A00087011000870110008701100087011000F0
:1000B00087011000870110008701100087011000E0
:1000C00087011000870110008701100087011000D0
:1000D00087011000870110008701100087011000C0
:1000E00087011000870110008701100087011000B0
:1000F00087011000870110008701100087011000A0
:10010000870110008701100087011000870110008F
:10011000870110008701100087011000870110007F
:10012000870110008701100087011000870110006F
:10013000870110008701100087011000870110005F
:10014000870110008701100087011000870110004F
:10015000870110008701100087011000870110003F
:100160008701100068466FF3820085460648804785
:1001700006480047FEE7FEE7FEE7FEE7FEE7FEE78C
:10018000FEE7FEE7FEE7FEE75906100091011000CA
:10019000DFF80CD000F006F80048004719071000FF
:1001A00000600020064C074D06E0E06840F00103C7
:1001B00094E8070098471034AC42F6D3FFF7ECFF01
:1001C000500710005007100080B582B040F2307127
:1001D000C4F2000143F23E100860FFE74EF6300023
:1001E000C4F20020006808B9FFE7F7E746F2A02153
:1001F000C4F202210120086046F2B021C4F20221BB
:1002000000200860FFE746F2E020C4F20220006808
:10021000012801D0FFE7F6E740F60021C4F20021F3
:100220000120086040F68021C4F200210860AC2162
:10023000C4F20101086840F4805020F48030086066
:10024000BF21C4F2010106200870FFE741F6AC406F
:10025000C4F220200068012801D0FFE7F6E7022061
:10026000019000F007F80199062000F019F802B09B
:1002700080BD000080B582B0019040F21051C4F200
:1002800000010868092262F303000860019840F247
:100290000011C4F20001086000F03AF802B080BD1D
:1002A00082B0019000910098019A40F20071C4F26E
:1002B000000141F8220002B07047000081B00090B8
:1002C000009940F20070C4F2000050F8210010F0D4
:1002D0003C0F0DD1FFE7009840F20071C4F200011D
:1002E00051F8200080F00100009A41F82200FFE759
:1002F00001B0704780B584B00390029101925820FC
:10030000036803980299019A984704B080BD0000E1
:1003100080B586B040F20010C4F20000006805907D
:10032000059800F0070001460191042842D8019980
:10033000DFE801F03F030B1B2D0040F20001C2F289
:1003400000014FF4004008608EE0BF20C4F20100BD
:10035000017846F60040C0F2DC20B0FBF1F040F23C
:100360000001C2F2000108607EE040F20110C4F218
:1003700000000078411C46F60040C0F2DC20B0FBD3
:10038000F1F040F20001C2F2000108606CE040F2BE
:100390000210C4F200000078411C46F60040C0F292
:1003A000DC20B0FBF1F040F20001C2F20001086075
:1003B0005AE0FFE741F22030C4F200000068C0F3C9
:1003C00005208DF80D0046F24840C4F20220006876
:1003D000012824D1FFE79DF80D1041F6B000C0F2CE
:1003E00008000DF10E0200F059F90290029858B978
:1003F000FFE7BDF80E004FF47A71484340F2000168
:10040000C2F20001086009E040F20001C2F20001FE
:1004100042F20040C0F2F4000860FFE723E09DF8DC
:100420000D1041F69000C0F208000DF10E0200F030
:1004300035F90290029858B9FFE7BDF80E004FF465
:100440007A71484340F20001C2F20001086009E0FD
:1004500040F20001C2F2000144F64030C0F24C000C
:100460000860FFE7FFE7FFE740F20000C2F200008C
:10047000006844F24021C0F20F01884208D8FFE72B
:1004800040F20411C4F20001002008700490D7E08B
:1004900040F20000C2F20000006848F28041C0F261
:1004A0001E01884209D8FFE740F20411C4F200019E
:1004B0000120087000200490C1E040F20000C2F268
:1004C000000000684CF2C061C0F22D01884209D8DA
:1004D000FFE740F20411C4F200010220087000207E
:1004E0000490ABE040F20000C2F20000006844F665
:1004F0004031C0F24C01884209D8FFE740F20411B4
:10050000C4F20001042008700220049095E040F23B
:100510000000C2F20000006841F20021C0F27A013E
:10052000884209D8FFE740F20411C4F20001072015
:100530000870032004907FE040F20000C2F2000047
:10054000006849F28061C0F29801884209D8FFE74B
:1005500040F20411C4F20001092008700520049043
:1005600069E040F20000C2F20000006841F600318C
:10057000C0F2B701884209D8FFE740F20411C4F283
:1005800000010B2008700520049053E040F20000A9
:10059000C2F20000006842F20041C0F2F401884259
:1005A00012D8FFE740F20411C4F200010F200870D6
:1005B0009DF81400400718B9FFE70720049002E0F7
:1005C00006200490FFE734E040F20000C2F2000091
:1005D000006842F60051C0F23111884209D8FFE7A5
:1005E00040F20411C4F200011320087007200490A7
:1005F0001EE040F20000C2F20000006843F2006119
:10060000C0F26E11884209D8FFE740F20411C4F22B
:100610000001172008700820049008E040F204113F
:10062000C4F200012F20087009200490FFE7FFE7C3
:10063000FFE7FFE7FFE7FFE7FFE7FFE7FFE7FFE78A
:1006400040F21051C4F20001086820F00F00049A33
:100650001043086006B080BD40F20000C2F2000006
:10066000006846F2A81188420CD3FFE740F2000070
:10067000C2F20000006846F60141C0F2DC21884267
:100680000AD3FFE740F20001C2F2000144F6403015
:10069000C0F24C000860FFE77047000080B58AB0E8
:1006A00008908DF81F1006920898042101AAFFF700
:1006B00021FE0090009818B1FFE70098099027E00C
:1006C00000208DF81700FFE79DF8170003281CDCB9
:1006D000FFE79DF8171001A810F821009DF81F10E2
:1006E00088420BD1FFE79DF8171001A800EB8100AD
:1006F0004088069908800020099009E0FFE79DF8EE
:10070000170001308DF81700DEE701200990FFE7A0
:1007100009980AB080BD000080B584B00020019027
:100720000390FFF751FD01980290FFE70298013016
:100730000290029848F2A061C0F20101884206D1FD
:10074000FFE70620FFF7BAFD00200290FFE7EDE784
:040000050010019155
:00000001FF
