:020000040010EA
:1000000000600020650110007501100077011000EC
:10001000790110007B0110007D011000000000003C
:100020000000000000000000000000007F01100040
:100030008101100000000000830110008501100004
:100040008701100087011000870110008701100050
:100050008701100087011000870110008701100040
:100060008701100087011000870110008701100030
:100070008701100087011000870110008701100020
:100080008701100087011000870110008701100010
:100090008701100087011000870110008701100000
:1000A00087011000870110008701100087011000F0
:1000B00087011000870110008701100087011000E0
:1000C00087011000870110008701100087011000D0
:1000D00087011000870110008701100087011000C0
:1000E00087011000870110008701100087011000B0
:1000F00087011000870110008701100087011000A0
:10010000870110008701100087011000870110008F
:10011000870110008701100087011000870110007F
:10012000870110008701100087011000870110006F
:10013000870110008701100087011000870110005F
:10014000870110008701100087011000870110004F
:10015000870110008701100087011000870110003F
:100160008701100068466FF3820085460648804785
:1001700006480047FEE7FEE7FEE7FEE7FEE7FEE78C
:10018000FEE7FEE7FEE7FEE7D50110009101100053
:10019000DFF80CD000F006F8004800471902100004
:1001A00000600020064C074D06E0E06840F00103C7
:1001B00094E8070098471034AC42F6D3FFF7ECFF01
:1001C0004402100044021000AC20C4F201000060A0
:1001D0007047000040F20000C2F20000006846F2E2
:1001E000A81188420CD3FFE740F20000C2F20000E1
:1001F000006846F60141C0F2DC2188420AD3FFE7DD
:1002000040F20001C2F2000144F64030C0F24C005E
:100210000860FFE77047000080B584B000200190BF
:100220000390FFF7D1FF01980290FFE70298013099
:10023000029002980A2803D1FFE700200290FFE70E
:04024000F4E70000DF
:040000050010019155
:00000001FF
