:020000040010EA
:1000000000600020650110007501100077011000EC
:10001000790110007B0110007D011000000000003C
:10002000000000000000000000000000910210002D
:10003000810110000000000041021000B502100014
:100040008701100087011000870110008701100050
:100050008701100087011000870110008701100040
:100060008701100087011000870110008701100030
:100070008701100087011000870110008701100020
:100080001102100087011000870110008701100085
:100090008701100087011000870110008701100000
:1000A00087011000870110008701100087011000F0
:1000B00087011000870110008701100087011000E0
:1000C00087011000870110008701100087011000D0
:1000D00087011000870110008701100087011000C0
:1000E00087011000870110008701100087011000B0
:1000F00087011000870110008701100087011000A0
:10010000870110008701100087011000870110008F
:10011000870110008701100087011000870110007F
:10012000870110008701100087011000870110006F
:10013000870110008701100087011000870110005F
:10014000870110008701100087011000870110004F
:10015000870110008701100087011000870110003F
:100160008701100068466FF3820085460648804785
:1001700006480047FEE7FEE7FEE7FEE7FEE7FEE78C
:10018000FEE7FEE7FEE7FEE7210710009101100001
:10019000DFF80CD000F02AF8004800479108100062
:1001A0000060002040EA01039B0703D009E008C972
:1001B000121F08C0042AFAD203E011F8013B00F82C
:1001C000013B521EF9D27047D2B201E000F8012B78
:1001D000491EFBD270470022F6E710B513460A46C7
:1001E00004461946FFF7F0FF204610BD064C074DA8
:1001F00006E0E06840F0010394E8070098471034F7
:10020000AC42F6D3FFF7C8FF34331000543310006C
:1002100040F60150C4F200000078FF2807DBFFE73A
:1002200040F60151C4F200010020087007E040F6DA
:100230000151C4F2000108780A300870FFE77047E6
:10024000EFF30980BFF36F8F0D4B1A6820E9F00FB1
:1002500010602DE908404FF0A00080F3118802F0F3
:10026000E9F84FF0000080F31188BDE808401968F4
:100270000868B0E8F00F80F30988BFF36F8F70470C
:10028000100000200000000000000000000000003E
:10029000074B19680868B0E8F00F80F30988BFF3CE
:1002A0006F8F4FF0000080F311884EF00D0E7047F5
:1002B0001000002080B582B04FF0A00080F31188BC
:1002C000BFF36F8FBFF34F8F009002F037FC40B148
:1002D000FFE74EF60451CEF200014FF08050086067
:1002E000FFE700200190019880F3118802B080BDE3
:1002F00080B582B0019040F21051C4F2000108684C
:10030000092262F303000860019840F20011C4F270
:100310000001086000F060F802B080BD82B001907A
:1003200000910098019A40F20071C4F2000141F876
:10033000220002B07047000082B001900091009846
:10034000019A40F20071C4F2000141F8220002B0AB
:100350007047000084B003900291019200930298CC
:10036000039A40F24C71C4F2000141F82200019856
:100370009DF80010084340F25C71C4F2000108606F
:1003800004B0704781B00090009940F20070C4F250
:10039000000050F8210010F03C0F0DD1FFE700984D
:1003A00040F20071C4F2000151F8200080F0010019
:1003B000009A41F82200FFE701B0704780B584B091
:1003C0000390029101925820036803980299019AC0
:1003D000984704B080BD000080B586B040F20010A0
:1003E000C4F2000000680590059800F0070001467F
:1003F0000191042842D80199DFE801F03F030B1B6B
:100400002D0040F20001C2F200014FF400400860EC
:100410008EE0BF20C4F20100017846F60040C0F231
:10042000DC20B0FBF1F040F20001C2F200010860F4
:100430007EE040F20110C4F200000078411C46F654
:100440000040C0F2DC20B0FBF1F040F20001C2F24B
:10045000000108606CE040F20210C4F20000007875
:10046000411C46F60040C0F2DC20B0FBF1F040F247
:100470000001C2F2000108605AE0FFE741F22030BB
:10048000C4F200000068C0F305208DF80D0046F2AC
:100490004840C4F202200068012824D1FFE79DF8FB
:1004A0000D1041F6B000C0F208000DF10E0200F090
:1004B00059F90290029858B9FFE7BDF80E004FF4C1
:1004C0007A71484340F20001C2F20001086009E07D
:1004D00040F20001C2F2000142F20040C0F2F4001A
:1004E0000860FFE723E09DF80D1041F69000C0F290
:1004F00008000DF10E0200F035F90290029858B98B
:10050000FFE7BDF80E004FF47A71484340F2000156
:10051000C2F20001086009E040F20001C2F20001ED
:1005200044F64030C0F24C000860FFE7FFE7FFE709
:1005300040F20000C2F20000006844F24021C0F224
:100540000F01884208D8FFE740F20411C4F200010D
:10055000002008700490D7E040F20000C2F20000D2
:10056000006848F28041C0F21E01884209D8FFE7C6
:1005700040F20411C4F20001012008700020049030
:10058000C1E040F20000C2F2000000684CF2C0611D
:10059000C0F22D01884209D8FFE740F20411C4F2ED
:1005A00000010220087000200490ABE040F200003F
:1005B000C2F20000006844F64031C0F24C018842AB
:1005C00009D8FFE740F20411C4F2000104200870CA
:1005D0000220049095E040F20000C2F200000068A2
:1005E00041F20021C0F27A01884209D8FFE740F2C7
:1005F0000411C4F2000107200870032004907FE07A
:1006000040F20000C2F20000006849F28061C0F2CE
:100610009801884209D8FFE740F20411C4F20001B2
:10062000092008700520049069E040F20000C2F241
:100630000000006841F60031C0F2B701884209D8D5
:10064000FFE740F20411C4F200010B2008700520FE
:10065000049053E040F20000C2F20000006842F251
:100660000041C0F2F401884212D8FFE740F20411C1
:10067000C4F200010F2008709DF81400400718B95B
:10068000FFE70720049002E006200490FFE734E033
:1006900040F20000C2F20000006842F60051C0F2D1
:1006A0003111884209D8FFE740F20411C4F2000179
:1006B00013200870072004901EE040F20000C2F2F0
:1006C0000000006843F20061C0F26E11884209D850
:1006D000FFE740F20411C4F200011720087008205F
:1006E000049008E040F20411C4F200012F200870C9
:1006F00009200490FFE7FFE7FFE7FFE7FFE7FFE7D9
:10070000FFE7FFE7FFE7FFE740F21051C4F2000107
:10071000086820F00F00049A1043086006B080BDFE
:1007200040F20000C2F20000006846F2A8118842C0
:100730000CD3FFE740F20000C2F20000006846F66A
:100740000141C0F2DC2188420AD3FFE740F20001F8
:10075000C2F2000144F64030C0F24C000860FFE7EE
:100760007047000080B58AB008908DF81F1006927F
:100770000898042101AAFFF721FE0090009818B103
:10078000FFE70098099027E000208DF81700FFE7A9
:100790009DF8170003281CDCFFE79DF8171001A83F
:1007A00010F821009DF81F1088420BD1FFE79DF83B
:1007B000171001A800EB81004088069908800020EE
:1007C000099009E0FFE79DF8170001308DF8170048
:1007D000DEE701200990FFE709980AB080BD00001C
:1007E00081B08DF803009DF9030000280ED4FFE7C7
:1007F0009DF9031001F01F02012090404A094EF2BA
:100800000011CEF2000141F82200FFE701B070476D
:1008100082B0012001908DF8030041F22810C2F24D
:100820000000006820B1FFE700208DF803002BE0F6
:1008300041F27C10C2F20000006820B1FFE7002006
:100840008DF803001FE041F22410C2F2000000689E
:1008500020B1FFE700208DF8030013E041F24810BB
:10086000C2F20000006841F29C01C2F20001096876
:100870000139884204D1FFE702208DF8030000E02F
:10088000FFE7FFE7FFE7FFE79DF8030002B07047CF
:1008900080B588B000200590079001F09DF90620F2
:1008A0000221FFF73BFD01F085F901F06FF9059B8F
:1008B00069464B6001200490086042F28910C0F242
:1008C000100043F21631C0F210013222039202F0FE
:1008D000C3F8039A059B049869464B60086042F28E
:1008E000A110C0F2100043F21C31C0F2100102F05E
:1008F000B3F801F013FD05980690FFE70698013064
:100900000690069848F2A061C0F20101884203D126
:10091000FFE700200690FFE7F0E7000080B586B013
:100920000590049141F27010C2F20000006802903C
:1009300040F21000C2F200000268002182F8551057
:100940000068043001F0FEF888B9FFE740F21000BB
:10095000C2F200000068C16A012000FA01F241F20F
:10096000AC01C2F2000108689043086000E0FFE7B4
:100970000598013018BBFFE7049800B3FFE741F288
:100980004811C2F2000148680190019A40F210003B
:10099000C2F2000003689A60019A92680368DA6004
:1009A00002680432019B9B685A6002680432019B12
:1009B0009A60006841610868013008603DE0029873
:1009C000059908440390039840F21001C2F2000117
:1009D000096848600398029988420ED2FFE740F206
:1009E0002000C2F20000006840F21001C2F20001D3
:1009F0000968043101F064F91EE040F21800C2F207
:100A00000000006840F21001C2F2000109680431E0
:100A100001F056F9039841F21411C2F2000109687D
:100A2000884207D2FFE7039841F21411C2F2000195
:100A3000086000E0FFE7FFE7FFE706B080BD0000C9
:100A400080B582B0019001F071F941F29C01C2F2CF
:100A5000000108680130086040F21000C2F2000096
:100A6000006898B9FFE7019840F21001C2F2000156
:100A7000086041F29C00C2F200000068012803D126
:100A8000FFE700F055FB00E0FFE71CE041F23C10FF
:100A9000C2F200000068A0B9FFE740F21000C2F205
:100AA00000000068C06A0199C96A884207D8FFE758
:100AB000019840F21001C2F20001086000E0FFE777
:100AC00000E0FFE7FFE741F2A800C2F20000016882
:100AD000013101600068019908640198C16A012030
:100AE00000FA01F241F2AC01C2F2000108681043C1
:100AF00008600198C06A00EB800040F22801C2F251
:100B0000000101EB8000406800900098019A90601D
:100B100000988068019AD06001980430009A926829
:100B2000506001980430009A9060019AD06A00EBFE
:100B3000800001EB800050610198C06A00EB8002E8
:100B400051F82200013041F8220001F01BF941F276
:100B50003C10C2F200000068C8B1FFE740F210008C
:100B6000C2F200000068C06A0199C96A88420CD2CA
:100B7000FFE74EF60451CEF200014FF080500860BE
:100B8000BFF34F8FBFF36F8F00E0FFE700E0FFE799
:100B900002B080BD80B582B001F0C8F841F2741097
:100BA000C2F20000006828BBFFE741F2B000C2F2C9
:100BB0000000009001F064F841F2C400C2F20000AD
:100BC000019001F05DF80099019840F21402C2F220
:100BD0000002116040F22401C2F200010860052009
:100BE0001021002201F0FAFC41F27411C2F200015E
:100BF000086000E0FFE701F0C5F802B080BD00002A
:100C000080B582B0FFE741F2A000C2F200000068A8
:100C100008B3FFE701F08AF841F25C10C2F200006D
:100C2000C068C06801900198043000F08BFF41F269
:100C30009C01C2F2000108680138086041F2A0017D
:100C4000C2F2000108680138086001F09BF80198C1
:100C500000F08CF8D7E702B080BD000080B582B00C
:100C6000019000910198006CB8B1FFE70199C86844
:100C70000A6C1044C86001988168C068884204D337
:100C8000FFE701990868C86000E0FFE70098019A53
:100C9000D168126CFFF786FAFFE702B080BD000052
:100CA00080B586B0059004910392002002900598CB
:100CB000806B01900598006C78B9FFE70598006893
:100CC00048B9FFE70598806802F068F80290059936
:100CD0000020886000E0FFE741E00398B8B9FFE733
:100CE000059A04995068126CFFF75CFA05994868F8
:100CF0000A6C10444860059948688968884204D3A2
:100D0000FFE705990868486000E0FFE726E0059ADC
:100D10000499D068126CFFF745FA0599C8680A6C07
:100D2000801AC86005980168C068884206D2FFE74B
:100D3000059988680A6C801AC86000E0FFE703988C
:100D4000022809D1FFE7019820B1FFE70198013897
:100D5000019000E0FFE700E0FFE7FFE7FFE7019811
:100D6000013005998863029806B080BD80B582B0D5
:100D700001900198006B01F02BF8019801F028F820
:100D800002B080BD83B0002001900120009041F2AC
:100D9000AC00C2F200000068022803D3FFE7012084
:100DA0000190FFE740F21000C2F200000068C06A44
:100DB00018B1FFE7002002901FE040F22800C2F2C5
:100DC00000000068022803D3FFE70020029013E030
:100DD000019818B1FFE7002002900CE041F21410D6
:100DE000C2F20000006841F27011C2F2000109680D
:100DF000401A0290FFE7FFE7FFE7029803B0704751
:100E000082B0019040F21400C2F200000068006855
:100E1000B0FA80F04009019908600198006848B96B
:100E2000FFE740F21400C2F200000068C0680068EA
:100E3000009002E000200090FFE7009802B07047A9
:100E400084B04FF48050009040F28C00C2F2000059
:100E500001909DF80400400788B1FFE70198073032
:100E60000190019820F007000190019A40F28C0156
:100E7000C2F200010098891A08440090FFE7019827
:100E80000290029941F24010C2F20000016000217C
:100E900041600298009A104401900198083801902E
:100EA000019820F007000190019A40F21C00C2F264
:100EB00000000260026851600268116002990391AB
:100EC0000199039A891A5160006803990860039890
:100ED000406841F21011C2F20001086003984068B6
:100EE00041F20411C2F20001086041F2D801C2F2DD
:100EF00000014FF00040086004B0704780B584B036
:100F00000290FFE7FFF77CFE40F22800C2F20000EB
:100F1000006802280CD3FFE74EF60451CEF2000120
:100F20004FF080500860BFF34F8FBFF36F8F00E02A
:100F3000FFE7FFF727FF01900198022829D3FFE779
:100F400001F070FA41F21410C2F20000006841F2A0
:100F50007011C2F20001096888420BD2FFE74FF01E
:100F6000A00080F31188BFF36F8FBFF34F8F039002
:100F7000FFE7FEE7FFF706FF01900198022804D380
:100F8000FFE7019800F0C8FF00E0FFE702F06CF80F
:100F900000E0FFE7B6E7000080B584B0DDF818C0D8
:100FA0000390029101928DF80330029818B9FFE77F
:100FB0000698006003E0019806990860FFE703982F
:100FC0000699C8630298069908640698012101F001
:100FD00053FB9DF80300069981F850000699002004
:100FE000886404B080BD000080B58AB0DDF83CC0E4
:100FF000DDF838C0DDF834C0DDF830C00790069168
:10100000059204930E98006B05998900A522FFF7BD
:10101000DBF80E98006B059900EB81000438039013
:10102000039820F0070003909DF80C00400758B18A
:10103000FFE74FF0A00080F31188BFF36F8FBFF37D
:101040004F8F0890FFE7FEE70698F8B1FFE7002012
:101050000290FFE70298092813D8FFE70698029A42
:10106000805C0E99114481F8340006980299405C26
:1010700008B9FFE705E0FFE7FFE7029801300290BB
:10108000E8E70E99002081F83D0004E00E99002069
:1010900081F83400FFE70C9805280BD3FFE74FF0E9
:1010A000A00080F31188BFF36F8FBFF34F8F0990BB
:1010B000FFE7FEE70C98052803D3FFE704200C9018
:1010C00000E0FFE70C980E99C8620C980E998864AE
:1010D0000E9900200190C8640E98043000F0E8FDDD
:1010E0000E98183000F0E4FD01980E9909610C99F2
:1010F000C1F105010E9A91610E9949620E99086538
:101100000E9981F854000E9981F8550003980799BB
:10111000049A00F0EFFC0E9908600D9820B1FFE7EB
:101120000E980D99086000E0FFE70AB080BD00004E
:1011300080B584B000200390FFE70398042810D8FE
:10114000FFE7039800EB800140F22800C2F20000A4
:1011500000EB810000F094FDFFE70398013003905D
:10116000EBE741F2DC00C2F20000019000F088FDE4
:1011700041F2F000C2F20000029000F081FD41F265
:101180002810C2F2000000F07BFD41F25C10C2F2B8
:10119000000000F075FD41F24810C2F2000000F0BE
:1011A0006FFD0199029840F21802C2F2000211602C
:1011B00040F22001C2F20001086004B080BD0000CE
:1011C00083B0029041F24010C2F200000190FFE7AC
:1011D000019800680299884205D2FFE7FFE701986D
:1011E00000680190F4E7019800900098019949681F
:1011F00008440299884209D1FFE7029842680199A0
:101200004868104448600198029000E0FFE70298A7
:101210000090009802994968084401990968884239
:1012200020D1FFE70198006840F21C01C2F20001E2
:10123000096888420DD0FFE701980068426802996A
:101240004868104448600198006800680299086086
:1012500007E040F21C00C2F200000068029908603A
:10126000FFE704E00198006802990860FFE7019831
:101270000299884204D0FFE702980199086000E0D3
:10128000FFE703B07047000080B586B00590049179
:1012900003920293002001900498059948600598F4
:1012A000006104980399884216D8FFE703980299D1
:1012B000401A05998969884203D3FFE7012001900C
:1012C00009E040F22400C2F20000006805990431F0
:1012D00000F0F6FCFFE717E003980299884208D275
:1012E000FFE704980299884203D3FFE701200190A9
:1012F00009E040F21400C2F20000006805990431D0
:1013000000F0DEFCFFE7FFE7019806B080BD0000BB
:1013100080B582B0019000F009FD0198806B18B98A
:10132000FFE70120009002E000200090FFE700F0BE
:1013300029FD009802B080BD80B588B00490049863
:10134000806C039000200290039858B9FFE74FF09B
:10135000A00080F31188BFF36F8FBFF34F8F05900C
:10136000FFE7FEE70398806B0399C96B88420BD3B4
:10137000FFE74FF0A00080F31188BFF36F8FBFF33A
:101380004F8F0690FFE7FEE70398806B0399C96BC8
:10139000884239D2FFE7039890F845008DF807009E
:1013A000039804A90022FFF77BFC02909DF9070037
:1013B000013088B9FFE70398406A58B1FFE7039806
:1013C000243001F087FD18B1FFE70120029000E012
:1013D000FFE700E0FFE716E09DF907007F280BD14B
:1013E000FFE74FF0A00080F31188BFF36F8FBFF3CA
:1013F0004F8F0790FFE7FEE79DF807000130039944
:1014000081F84500FFE700E0FFE7029808B080BDE3
:1014100006480068006880F3088862B661B6BFF3CA
:101420004F8FBFF36F8F00DF00BF00BF08ED00E0FC
:1014300080B584B00390029140F21400C2F2000023
:101440000068C068C06801900198043000F07AFB21
:10145000019890F828004007002806D5FFE701987A
:101460000399029A00F01CF907E0019991F828000D
:1014700000F0FE0081F82800FFE70198016A884724
:1014800004B080BD80B58CB0FFE741F27410C2F2A9
:101490000000006806A9002201F072F9002800F09F
:1014A000AF80FFE70698B0F1FF3F17DCFFE706A823
:1014B00004300290029858B9FFE74FF0A00080F383
:1014C0001188BFF36F8FBFF34F8F0A90FFE7FEE7DE
:1014D00002990A6848688968904700E0FFE7069823
:1014E000002800F18C80FFE7089805900598406976
:1014F00028B1FFE70598043000F024FB00E0FFE787
:1015000004A800F005F903900698013801460191FE
:10151000082800F272800199DFE801F00505323AEF
:101520005B0505323A00059991F8280040F001006A
:1015300081F828000598079B81691944039AFFF7F1
:10154000A3FED8B1FFE7059890F8280040070028CF
:1015500008D5FFE70598079982691144039A00F0BE
:101560009FF807E0059991F8280000F0FE0081F847
:101570002800FFE70598016A884700E0FFE73DE0A3
:10158000059991F8280000F0FE0081F8280035E068
:10159000059991F8280040F0010081F8280007988B
:1015A000059988610598806958B9FFE74FF0A00058
:1015B00080F31188BFF36F8FBFF34F8F0B90FFE75E
:1015C000FEE70598039B816919441A46FFF75CFE04
:1015D00014E0059890F828008007002804D4FFE75D
:1015E000059800F0F5FB07E0059991F8280000F058
:1015F000FE0081F82800FFE700E0FFE7FFE744E78F
:101600000CB080BD80B584B00390029100F00AFF59
:10161000684600F07DF801900098D8BBFFE702987B
:1016200060B9FFE703980199884207D8FFE701F006
:101630001BFD03980199FFF7FBFE2AE0029858B1C1
:10164000FFE740F22400C2F2000000680068B0FA30
:1016500080F040090290FFE741F27410C2F20000EE
:1016600000680399019A891A029A00F05BFD01F063
:10167000FBFC60B9FFE74EF60451CEF200014FF0DB
:1016800080500860BFF34F8FBFF36F8F00E0FFE71C
:10169000FFE702E001F0E8FCFFE704B080BD0000D6
:1016A00080B584B0039002910192FFE70398029BFA
:1016B00081691944019AFFF7E7FD48B1FFE70398F4
:1016C00081690298084402900398016A8847EDE70F
:1016D00004B080BD40F21800C2F20000006800684B
:1016E00040B9FFE741F21411C2F200014FF0FF30A0
:1016F00008600CE040F21800C2F200000068C06808
:10170000006841F21411C2F200010860FFE770475F
:1017100080B582B0019001F007FA0090009840F285
:101720000C01C2F200010968884206D2FFE700F00E
:1017300011F801990120086003E001990020086078
:10174000FFE7009840F20C01C2F200010860009827
:1017500002B080BD80B582B0FFE740F21400C2F253
:1017600000000068006870B1FFE740F21400C2F2A8
:1017700000000068C0680068019001984FF0FF31D8
:10178000FFF756FEE9E740F21402C2F200021068C9
:10179000009040F22401C2F2000108681060009835
:1017A000086002B080BD000083B00020009040F2CD
:1017B0000800C2F200000068013058B1FFE74FF0A6
:1017C000A00080F31188BFF36F8FBFF34F8F01909C
:1017D000FFE7FEE74FF0A00080F31188BFF36F8FA3
:1017E000BFF34F8F0290FFE7009808B9FFE7FBE7D0
:1017F00003B0704780B584B00390FFE701A8FFF7FE
:10180000FFFA029002980199FFF7FCFEFFF73AFEFB
:10181000F4E7000080B582B0019000F087FA0198EB
:1018200090F845008DF80300FFE79DF903000128BB
:1018300025DBFFE70198806C50B1FFE70198FFF7C7
:101840007BFD18B1FFE700F001FD00E0FFE710E0CD
:101850000198406A58B1FFE70198243001F03AFB43
:1018600018B1FFE700F0F2FC00E0FFE700E006E05F
:10187000FFE79DF8030001388DF80300D5E70199D3
:10188000FF2081F8450000F07DFA00F04FFA019842
:1018900090F844008DF80200FFE79DF9020001284E
:1018A00016DBFFE70198006980B1FFE7019810306F
:1018B00001F010FB18B1FFE700F0C8FC00E0FFE703
:1018C0009DF8020001388DF8020000E000E0E4E736
:1018D0000199FF2081F8440000F054FA02B080BD65
:1018E00080B58AB006900020029000F09BFD40F287
:1018F0001C00C2F20000006818B9FFE7FFF7A0FA69
:1019000000E0FFE7069841F2D801C2F20001096841
:10191000084240F0D880FFE7069888B3FFE70699B1
:1019200001F1080088422BD9FFE70698083006909D
:101930009DF81800400708B3FFE7069921F007005B
:101940000830884216D9FFE7069820F007000830D3
:1019500006909DF81800400758B1FFE74FF0A0002F
:1019600080F31188BFF36F8FBFF34F8F0790FFE7AE
:10197000FEE702E000200690FFE700E0FFE702E05C
:1019800000200690FFE70698002800F09A80FFE705
:10199000069841F20411C2F200010968884200F27F
:1019A0009080FFE741F24010C2F20000049000680E
:1019B0000590FFE705984168069A00209142019042
:1019C00007D2FFE705980068002818BF01200190A2
:1019D000FFE70198C00730B1FFE70598049005982C
:1019E00000680590E6E7059840F21C01C2F200018C
:1019F0000968884263D0FFE70498006808300290C5
:101A00000598006804990860059840680699401A8E
:101A1000112821D3FFE705980699084403909DF803
:101A20000C00400758B1FFE74FF0A00080F3118889
:101A3000BFF36F8FBFF34F8F0890FFE7FEE7059866
:101A400040680699401A03994860069805994860CD
:101A50000398FFF7B5FB00E0FFE70598426841F205
:101A60000410C2F200000168891A0160006841F2A6
:101A70001011C2F20001096888420BD2FFE741F25F
:101A80000410C2F20000006841F21011C2F200011D
:101A9000086000E0FFE741F2D800C2F200000268EF
:101AA000059948681043486005990020086041F294
:101AB0001C11C2F2000108680130086000E0FFE775
:101AC00000E0FFE700E0FFE701F0CEFA9DF8080034
:101AD000400758B1FFE74FF0A00080F31188BFF333
:101AE0006F8FBFF34F8F0990FFE7FEE702980AB0B0
:101AF00080BD000083B002900191009202980438EA
:101B0000029002994FF080700860029804380290A9
:101B1000019820F0010002990860029804380290B0
:101B2000029941F2A970C0F21000086002981438BE
:101B3000029000980299086002982038029002985A
:101B400003B0704782B0019001980069009001983D
:101B50004168806888600199486889684860009891
:101B600040680199884205D1FFE701988068009993
:101B7000486000E0FFE701990020086100990868CB
:101B8000013808600098006802B0704780B582B0E4
:101B900005204FF480710191FEF7CEFB019A0020E1
:101BA00040F605313123FEF7D5FB1020FEF718FE75
:101BB00002B080BD40F60051C4F20001FE20087062
:101BC00040F60151C4F20001012008704AF20011F0
:101BD000C4F201210860704780B582B040F23071D4
:101BE000C4F2000143F23E100860FFE74EF63000F9
:101BF000C4F20020006808B9FFE7F7E746F2A02129
:101C0000C4F202210120086046F2B021C4F2022190
:101C100000200860FFE746F2E020C4F202200068DE
:101C2000012801D0FFE7F6E740F60021C4F20021C9
:101C30000120086040F68021C4F200210860AC2237
:101C4000C4F20102116841F4805121F48031116025
:101C5000BF21C4F201010870FFE741F6AC40C4F2B5
:101C600020200068012801D0FFE7F6E70220FEF7F8
:101C70003FFB00200190019880F3108802B080BDE6
:101C800081B00090009901F10800486000994FF080
:101C9000FF308860009901F10800C860009901F1E7
:101CA0000800086100990020086001B0704700003A
:101CB00081B0009000990020086101B070470000D9
:101CC00084B003900291029800680090009801305F
:101CD00020B9FFE703980069019010E003980830ED
:101CE0000190FFE70198406800680099884205D894
:101CF000FFE7FFE7019840680190F3E7FFE70198ED
:101D00004068029948600298416888600198029989
:101D100088600298019948600398029908610399C4
:101D200008680130086004B07047000082B04FF0CE
:101D3000A00080F31188BFF36F8FBFF34F8F009027
:101D400040F20800C2F20000016801310160006841
:101D5000012814D1FFE74EF60450CEF200000068CF
:101D6000000658B1FFE74FF0A00080F31188BFF3E1
:101D70006F8FBFF34F8F0190FFE7FEE7FFE702B0E1
:101D80007047000082B040F20800C2F20000006814
:101D900058B9FFE74FF0A00080F31188BFF36F8FB1
:101DA000BFF34F8F0090FFE7FEE740F20800C2F25A
:101DB0000000016801390160006830B9FFE70020C8
:101DC0000190019880F31188FFE702B0704700008E
:101DD00080B586B0039003980290039800285CD0E9
:101DE000FFE7029808380290029801900198406835
:101DF00041F2D801C2F20001096808420BD1FFE7A5
:101E00004FF0A00080F31188BFF36F8FBFF34F8FA7
:101E10000490FFE7FEE70198006858B1FFE74FF034
:101E2000A00080F31188BFF36F8FBFF34F8F059031
:101E3000FFE7FEE70198406841F2D801C2F20001D5
:101E40000968084227D0FFE70198006808BBFFE750
:101E500041F2D800C2F2000002680199486890433C
:101E6000486000F0DFFA0198426841F20411C2F2C2
:101E700000010868104408600198FFF7A1F941F2D9
:101E80002011C2F2000108680130086001F0ECF88E
:101E900000E0FFE700E0FFE7FFE706B080BD0000DD
:101EA00040F20000C2F20000016844F6D352C1F2D1
:101EB0006202A1FB02318B0941F29801C2F20001DA
:101EC0000B600B686FF07F41B1FBF3F141F20C1333
:101ED000C2F20003196041F29403C2F200032D2103
:101EE00019604EF21001CEF2000100230B604EF299
:101EF000180CCEF2000CCCF800300068A0FB0202F7
:101F00004FF0FF3000EB92104EF21402CEF20002BE
:101F1000106007200860704780B586B0059005986E
:101F200041F20C11C2F200010968884207D9FFE7AB
:101F300041F20C10C2F2000000680590FFE74EF27B
:101F40001001CEF20001086820F0010008604EF296
:101F50001800CEF20000026841F29800C2F20000C0
:101F600000680599013900FB01200490049841F2B2
:101F70009401C2F200010968884209D9FFE741F2E1
:101F80009400C2F2000001680498401A0490FFE730
:101F900072B6BFF34F8FBFF36F8FFEF739FCD8B91E
:101FA000FFE74EF21800CEF2000000684EF2140176
:101FB000CEF2000108604EF21002CEF2000210686C
:101FC00040F00100106041F29800C2F20000006889
:101FD0000138086062B6A3E004984EF21401CEF214
:101FE000000108604EF21801CEF2000100200860E6
:101FF0004EF21001CEF20001086840F001000860C6
:1020000005980190019830B1FFE7BFF34F8F30BFC3
:10201000BFF36F8FFFE762B6BFF34F8FBFF36F8FD2
:1020200072B6BFF34F8FBFF36F8F4EF21000CEF238
:102030000000062101600068C003002833D5FFE7D7
:1020400041F29800C2F200000068049A4EF21801B2
:10205000CEF200010968891A0844013800900098FE
:1020600041F29401C2F200010968884209D3FFE7F6
:10207000009841F29801C2F200010968884208D92B
:10208000FFE741F29800C2F20000006801380090BA
:10209000FFE700984EF21401CEF2000108600598A7
:1020A000013803901EE0059841F29801C2F2000148
:1020B0000A6850434EF21802CEF200021268801AEB
:1020C000029002980A68B0FBF2F003900398013086
:1020D000096848430299401A4EF21401CEF20001F9
:1020E0000860FFE74EF21801CEF200010020086000
:1020F0004EF21001CEF20001086840F001000860C5
:10210000039800F069F941F29800C2F200000068FB
:1021100001384EF21401CEF20001086062B6FFE70A
:1021200006B080BD80B584B00390029101920398FF
:102130000090FFF7FBFD009890F94400013028B9AA
:10214000FFE70099002081F84400FFE7009890F92C
:102150004500013028B9FFE70099002081F84500CB
:10216000FFE7FFF70FFE0098806B38B9FFE7009894
:1021700024300299019A00F093F800E0FFE70098FC
:10218000FFF748FB04B080BD80B582B00190FFE747
:102190000620FEF7F7F841F27C5000F00DF8F7E763
:1021A00080B582B00190FFE70620FEF7EBF84FF410
:1021B0007A7000F001F8F7E780B584B00290002053
:1021C00001900298E0B1FFE741F2A400C2F20000E2
:1021D000006858B1FFE74FF0A00080F31188BFF30B
:1021E0006F8FBFF34F8F0390FFE7FEE700F01AF900
:1021F00002980021FEF792FB00F036FF019000E00C
:10220000FFE7019860B9FFE74EF60451CEF20001F6
:102210004FF080500860BFF34F8FBFF36F8F00E027
:10222000FFE704B080BD000081B0009041F21810BB
:10223000C2F2000000680099086041F27010C2F21A
:10224000000000680099486001B0704741F27C11BD
:10225000C2F20001012008607047000080B584B020
:1022600002900191029858B9FFE74FF0A00080F367
:102270001188BFF36F8FBFF34F8F0390FFE7FEE727
:10228000029840F21001C2F2000109681831FFF70C
:1022900017FD01980121FEF741FB04B080BD00004D
:1022A00080B586B0049003910292049858B9FFE774
:1022B0004FF0A00080F31188BFF36F8FBFF34F8FF3
:1022C0000590FFE7FEE7049840680190019840F20E
:1022D0001001C2F200010A68D061019880680A68A2
:1022E000106208681830019A9268506008681830C7
:1022F000019A90600498096888620499086801301E
:102300000860029820B1FFE74FF0FF300390FFE72D
:1023100003980299FEF702FB06B080BD80B586B037
:1023200041F20811C2F200016846416000230360D7
:1023300040F6FD60C0F2100043F22231C0F21001FD
:102340004FF4807200F088FB03900398012804D1B9
:10235000FFE700F09BFF039000E0FFE703980128F0
:1023600023D1FFE74FF0A00080F31188BFF36F8FF8
:10237000BFF34F8F049041F21411C2F200014FF0ED
:10238000FF30086041F23C11C2F2000101200860F8
:1023900041F27011C2F200010020086000F0AAF8BA
:1023A00008B1FFE700E0FFE70FE00398013058B9FC
:1023B000FFE74FF0A00080F31188BFF36F8FBFF3EA
:1023C0004F8F0590FFE7FEE7FFE743F23030C0F2A2
:1023D0001000006806B080BD82B0009041F270101D
:1023E000C2F2000000680099084441F21411C2F2E0
:1023F0000001096888420BD9FFE74FF0A00080F385
:102400001188BFF36F8FBFF34F8F0190FFE7FEE797
:10241000009A41F27011C2F200010868104408608D
:1024200002B0704741F2A401C2F200010868013015
:102430000860704785B041F2A400C2F20000006855
:1024400038B1FFE741F27C11C2F2000101200860BF
:102450004DE041F27C11C2F200010020086041F21F
:10246000AC00C2F20000006803900398B0FA80F05C
:102470008DF80B009DF80B00C0F11F000190019832
:1024800000EB800140F22800C2F2000050F8210069
:1024900058B9FFE74FF0A00080F31188BFF36F8FAA
:1024A000BFF34F8F0490FFE7FEE7019800EB800138
:1024B00040F22800C2F2000000EB81000090009979
:1024C000486840684860009948680831884205D1EA
:1024D000FFE70099486840684860FFE70098406857
:1024E000C06840F21001C2F200010860FFE705B0C9
:1024F0007047000080B586B04EF20040CEF200007A
:10250000039001780491FF21017000788DF80B0091
:102510009DF80B0000F0A00041F28C01C2F2000116
:10252000087041F29001C2F2000107200860FFE745
:102530009DF80B00000600280DD5FFE741F2900141
:10254000C2F200010868013808609DF80B004000E5
:102550008DF80B00ECE741F29000C2F20000006839
:1025600004280BD0FFE74FF0A00080F31188BFF3E1
:102570006F8FBFF34F8F0590FFE7FEE741F29001A9
:10258000C2F20001086800020860086800F4E06018
:10259000086004984EF20041CEF2000108704EF639
:1025A0002051CEF20001086840F46000086008681D
:1025B00040F060400860FFF773FC40F20801C2F28F
:1025C0000001002001900860FEF722FFFFF732FFB4
:1025D000FFF7EAF8019806B080BD000080B588B02A
:1025E000069005918DF8132000200390069880B383
:1025F000FFE706994FF0FF30B0FBF1F005998842F4
:1026000027D3FFE706980599484310F1550F20D8C6
:10261000FFE7069805994843029002985430FFF767
:102620005FF90390039890B1FFE703980190019838
:102630005430019006980599019A9DF81330DDF801
:102640000CC0EE46CEF800C0FEF7A6FC00E0FFE7A7
:102650000EE0039858B9FFE74FF0A00080F311880F
:10266000BFF36F8FBFF34F8F0790FFE7FEE7FFE7E2
:10267000039808B080BD000080B586B00390029139
:102680000120019003980090009858B9FFE74FF09F
:10269000A00080F31188BFF36F8FBFF34F8F0490BA
:1026A000FFE7FEE70098002856D0FFE70098C06BD0
:1026B000002851D0FFE70098C26B016C4FF0FF304B
:1026C000B0FBF2F0884247D3FFE7FFF72FFB0099FA
:1026D0000B68C86B0A6C00FB023088600099002010
:1026E000886300990868486000990B68C86B0A6C99
:1026F000013800FB0230C8600099FF2081F84400D7
:10270000009981F845000298D0B9FFE70098006968
:10271000A0B1FFE70098103000F0DCFB60B1FFE7EC
:102720004EF60451CEF200014FF080500860BFF326
:102730004F8FBFF36F8F00E0FFE700E0FFE708E097
:1027400000981030FFF79CFA00982430FFF798FAB1
:10275000FFE7FFF717FB02E000200190FFE7019879
:1027600058B9FFE74FF0A00080F31188BFF36F8FD7
:10277000BFF34F8F0590FFE7FEE7019806B080BDDD
:1027800080B58EB0099008910792002006900998B4
:102790000390039858B9FFE74FF0A00080F3118829
:1027A000BFF36F8FBFF34F8F0B90FFE7FEE70899E2
:1027B0000020019039B9FFE70398006C002818BF8A
:1027C00001200190FFE70198C00758B1FFE74FF0E3
:1027D000A00080F31188BFF36F8FBFF34F8F0C9071
:1027E000FFE7FEE700F084F901460020009031B9D0
:1027F000FFE70798002818BF01200090FFE7009826
:10280000C00758B1FFE74FF0A00080F31188BFF375
:102810006F8FBFF34F8F0D90FFE7FEE7FFE7FFF7E6
:1028200085FA0398806B0290029830B3FFE7039813
:102830000899FEF713FA0298013803998863039800
:102840000069A0B1FFE70398103000F043FB60B1CE
:10285000FFE74EF60451CEF200014FF080500860C1
:10286000BFF34F8FBFF36F8F00E0FFE700E0FFE79C
:10287000FFF788FA01200A906DE0079828B9FFE772
:10288000FFF780FA00200A9065E0069830B9FFE76C
:1028900004A8FFF7C9FC0120069000E0FFE7FFE76E
:1028A000FFE7FFF76FFAFFF7BDFDFFF73FFA039869
:1028B00090F94400013028B9FFE70399002081F81E
:1028C0004400FFE7039890F94500013028B9FFE77D
:1028D0000399002081F84500FFE7FFF753FA04A8A9
:1028E00007A900F03BF830BBFFE70398FEF710FDA7
:1028F000D0B1FFE7039824300799FFF7AFFC0398A6
:10290000FEF788FF00F0B0FB60B9FFE74EF6045118
:10291000CEF200014FF080500860BFF34F8FBFF33D
:102920006F8F00E0FFE705E00398FEF773FF00F00C
:102930009BFBFFE70EE00398FEF76CFF00F094FBB3
:102940000398FEF7E5FC18B1FFE700200A9002E0CB
:10295000FFE7FFE763E70A980EB080BD80B588B057
:1029600005900491059858B9FFE74FF0A00080F357
:102970001188BFF36F8FBFF34F8F0690FFE7FEE71D
:10298000049858B9FFE74FF0A00080F31188BFF317
:102990006F8FBFF34F8F0790FFE7FEE7FFF7C6F992
:1029A00041F27010C2F2000000680290029805998E
:1029B0004968401A019040F21000C2F2000000681D
:1029C00090F8550058B1FFE740F21000C2F2000045
:1029D0000168002081F855000120039037E0049839
:1029E0000068013018B9FFE7002003902EE041F2A3
:1029F0001810C2F2000000680599096888420CD0DE
:102A0000FFE7029805994968884206D3FFE701204D
:102A1000039004990020086017E001980499096860
:102A200088420BD2FFE7019A04990868801A08606F
:102A30000598FFF7F9FB0020039005E004990020BA
:102A4000086001200390FFE7FFE7FFE7FFE7FFF7DC
:102A500099F9039808B080BD70B58CB0DDF844C01A
:102A6000DDF840C00B900A91ADF826200893BDF820
:102A700026008000FEF734FF0590059880B1FFE73F
:102A80005820FEF72DFF0790079820B1FFE7059823
:102A90000799086303E00598FFF79AF9FFE702E05A
:102AA00000200790FFE70798D8B1FFE70B980A9935
:102AB000BDF82620089BDDF840C0119C079DEE461E
:102AC0000026CEF80C60CEF80850CEF80440CEF8C0
:102AD00000C0FEF789FA0798FDF7B2FF01200690C3
:102AE00003E04FF0FF300690FFE706980CB070BD92
:102AF00081B041F23C10C2F20000006818B9FFE753
:102B0000012000900DE041F2A400C2F20000006834
:102B100018B9FFE70220009002E000200090FFE7D4
:102B2000FFE7009801B0704781B041F27010C2F227
:102B3000000000680090009801B0704780B58AB02E
:102B40000020069041F2A400C2F2000000680028B4
:102B500040F01981FFE741F27011C2F200010868EC
:102B60000130059005980860059858BBFFE740F2D2
:102B70001800C2F200000068006858B1FFE74FF08B
:102B8000A00080F31188BFF36F8FBFF34F8F0990C0
:102B9000FFE7FEE740F21802C2F20002106804905C
:102BA00040F22001C2F20001086810600498086039
:102BB00041F21811C2F20001086801300860FEF706
:102BC00089FD00E0FFE7059841F21411C2F200010F
:102BD00009688842C0F0B680FFE7FFE740F21800BE
:102BE000C2F200000068006840B9FFE741F214112A
:102BF000C2F200014FF0FF300860A2E040F218007E
:102C0000C2F200000068C068C06808900898406878
:102C1000079005980799884207D2FFE7079841F285
:102C20001411C2F2000108608BE0FFE708984069C8
:102C3000039008988168C068886008998868C968A6
:102C400048600398406808990431884205D1FFE73D
:102C50000898C06803994860FFE708990020486118
:102C600003990868013808600898806AF8B1FFE79E
:102C70000898806A02900898C169006A886008997B
:102C8000C869096A48600298406808991831884202
:102C900005D1FFE70898006A02994860FFE70899A4
:102CA00000208862029908680138086000E0FFE7A8
:102CB0000898C16A012000FA01F241F2AC01C2F2A7
:102CC00000010868104308600898C06A00EB8000A3
:102CD00040F22801C2F2000101EB8000406801903F
:102CE0000198089A906001988068089AD0600898C6
:102CF0000430019A9268506008980430019A9060FC
:102D0000089AD06A00EB800001EB800050610898BF
:102D1000C06A00EB800251F82200013041F8220025
:102D20000898C06A40F21001C2F200010968C96A3D
:102D3000884203D3FFE70120069000E0FFE7FFE7AA
:102D40004CE7FFE740F21000C2F200000068C06AE2
:102D500000EB800140F22800C2F2000050F8210090
:102D6000022803D3FFE70120069000E0FFE741F2CD
:102D70007C10C2F20000006818B1FFE70120069045
:102D800000E0FFE707E041F22411C2F20001086809
:102D900001300860FFE706980AB080BD80B586B0B4
:102DA000039003980290002001900398002800F0FF
:102DB0008D80FFE7029840F21001C2F2000109681D
:102DC00088420BD0FFE74FF0A00080F31188BFF3DB
:102DD0006F8FBFF34F8F0490FFE7FEE70298C06C40
:102DE00058B9FFE74FF0A00080F31188BFF36F8F51
:102DF000BFF34F8F0590FFE7FEE70299C86C0138DB
:102E0000C8640299C86A896C88425DD0FFE702985D
:102E1000C06C002856D1FFE702980430FEF792FEFE
:102E200068B9FFE70298C16A012000FA01F241F295
:102E3000AC01C2F2000108689043086000E0FFE7BF
:102E40000299886CC8620299C86AC0F1050088615D
:102E50000298C16A012000FA01F341F2AC02C2F209
:102E600000021168194311600299C96A01EB8101DE
:102E700040F22802C2F2000202EB8101496800918F
:102E80000099029B996000998968029BD960029918
:102E90000431009B9B68596002990431009B996042
:102EA000029BD96A01EB810102EB81015961029910
:102EB000C96A01EB810352F82310013142F8231053
:102EC000019000E0FFE700E0FFE700E0FFE7019886
:102ED00006B080BD80B588B006900698C068C0680E
:102EE0000590059858B9FFE74FF0A00080F31188CE
:102EF000BFF36F8FBFF34F8F0790FFE7FEE7059893
:102F0000806A03900598C169006A88600599C8695C
:102F1000096A48600398406805991831884205D1CC
:102F2000FFE70598006A03994860FFE705990020CC
:102F30008862039908680138086041F2A400C2F26F
:102F400000000068002859D1FFE705984069029009
:102F500005988168C068886005998868C968486074
:102F60000298406805990431884205D1FFE7059829
:102F7000C06802994860FFE70599002048610299FE
:102F80000868013808600598C16A012000FA01F25A
:102F900041F2AC01C2F200010868104308600598D4
:102FA000C06A00EB800040F22801C2F2000101EB90
:102FB0008000406801900198059A906001988068AF
:102FC000059AD06005980430019A9268506005987F
:102FD0000430019A9060059AD06A00EB800001EB02
:102FE000800050610598C06A00EB800251F8220011
:102FF000013041F82200FEF76DFB1BE041F2281181
:10300000C2F20001486800900098059AD0610098CB
:103010008068059A106205981830009A926850608E
:1030200005981830009A9060059881620868013010
:103030000860FFE70598C06A40F21001C2F2000183
:103040000968C96A884208D9FFE70120049041F263
:103050007C11C2F20001086002E000200490FFE74A
:10306000049808B080BD000080B588B000200690AC
:10307000059041F2A400C2F20000006858B9FFE7D1
:103080004FF0A00080F31188BFF36F8FBFF34F8F15
:103090000790FFE7FEE7FEF749FE41F2A400C2F207
:1030A00000000168013901600068002840F0E780F5
:1030B000FFE741F29C00C2F200000068002800F027
:1030C000DD80FFE7FFE741F22810C2F20000006850
:1030D000002800F09080FFE741F22810C2F20000C3
:1030E000C068C06806900698806A04900698C16916
:1030F000006A88600699C869096A4860049840684F
:1031000006991831884205D1FFE70698006A0499AC
:103110004860FFE706990020886204990868013832
:10312000086006984069039006988168C0688860C6
:1031300006998868C9684860039840680699043110
:10314000884205D1FFE70698C06803994860FFE709
:1031500006990020486103990868013808600698BC
:10316000C16A012000FA01F241F2AC01C2F2000191
:103170000868104308600698C06A00EB800040F2BF
:103180002801C2F2000101EB800040680290029821
:10319000069A906002988068069AD060069804307B
:1031A000029A9268506006980430029A9060069ADB
:1031B000D06A00EB800001EB800050610698C06A85
:1031C00000EB800251F82200013041F822000698FD
:1031D000C06A40F21001C2F200010968C96A88425F
:1031E00007D3FFE741F27C11C2F200010120086021
:1031F00000E0FFE767E7069818B1FFE7FEF76AFA15
:10320000FFE741F22410C2F200000068019001982B
:10321000E0B1FFE7FFE7FFF791FC38B1FFE741F2CC
:103220007C11C2F200010120086000E0FFE7019874
:1032300001380190FFE701980028ECD1FFE741F247
:103240002411C2F200010020086000E0FFE741F213
:103250007C10C2F20000006870B1FFE70120059009
:103260004EF60451CEF200014FF080500860BFF3DB
:103270004F8FBFF36F8F00E0FFE7FFE700E0FFE74E
:10328000FEF780FD059808B080BD000080B584B0D1
:1032900000200290FDF77EFC41F27410C2F20000A3
:1032A0000068B8B1FFE741F27810C2F20000694649
:1032B00048600220086041F2F570C0F2100043F24D
:1032C0002731C0F210014FF400720023FFF7C4FB56
:1032D000029000E0FFE7029858B9FFE74FF0A00026
:1032E00080F31188BFF36F8FBFF34F8F0390FFE719
:1032F000FEE7029804B080BD02E008C8121F08C1B2
:10330000002AFAD170477047002001E001C1121F66
:10331000002AFBD170475461736B31005461736BA9
:10332000320049444C4500546D72205376630000CE
:1033300004000000543310000800002004000000C6
:10334000F8321000583310000C00002074110000F7
:0833500008331000AAAAAAAA82
:040000050010019155
:00000001FF
