:020000040010EA
:1000000000600020650110007501100077011000EC
:10001000790110007B0110007D011000000000003C
:10002000000000000000000000000000D1431000AC
:1000300081011000000000008143100031461000D3
:100040008701100087011000870110007D08100053
:100050008701100087011000870110008701100040
:100060008701100087011000870110008701100030
:100070008701100087011000870110008701100020
:100080006D1E10008701100087011000870110000D
:100090008701100087011000870110008701100000
:1000A00087011000870110008701100087011000F0
:1000B00087011000870110008701100087011000E0
:1000C00087011000870110008701100087011000D0
:1000D00087011000870110008701100087011000C0
:1000E00087011000870110008701100087011000B0
:1000F0009DF811009DF811009DF811009DF8110068
:100100009DF811009DF811000DEE10009DF81100F2
:100110009DF8110087011000870110008701100071
:10012000870110008701100087011000870110006F
:10013000870110008701100087011000870110005F
:10014000870110008701100087011000870110004F
:1001500087011000870110009DF811009DF8110023
:100160009DF8110068466FF3820085460648804777
:1001700006480047FEE7FEE7FEE7FEE7FEE7FEE78C
:10018000FEE7FEE7FEE7FEE7915310009101100045
:10019000DFF80CD000F060FB0048004715EF1100BD
:1001A000006000202DE9F05F0546002092469B4646
:1001B00088460646814640241BE02846414647467D
:1001C000224600F092FA53465A46C01A914110D383
:1001D00011461846224600F079FA2D1A67EB0108FD
:1001E0004F4622460120002100F070FA17EB00096B
:1001F0004E41201EA4F10104DFDC484631462A4668
:100200004346BDE8F09F2DE9F0410024061B25463A
:1002100071F1000605DA01240027D0EB070067EB37
:100220000101161E73F1000605DA0027D2EB070262
:10023000012567EB0303FFF7B5FF86460E46174619
:100240009C46AC4204D00025D0EB050E65EB0106C0
:1002500024B10020D2EB000760EB030C704631465E
:100260003A466346BDE8F0810649074A08685043AC
:1002700043F23902104408604008704701490860A1
:1002800070470000080000206D4EC64110B540EADE
:1002900001040346A40703D009E010C9121F10C3CC
:1002A000042AFAD203E011F8014B03F8014B521E65
:1002B000F9D210BDD2B201E000F8012B491EFBD2E9
:1002C00070470022F6E710B513460A460446194661
:1002D000FFF7F0FF204610BD30B50446002003466E
:1002E00000E05B1C934203D2E05CCD5C401BF8D085
:1002F00030BD2DE9FE4F804681EA0300C00F0C4659
:10030000009021F0004123F00045B8EB0200A94124
:1003100005D24046214690461C460B46024623F035
:100320000040104347D0270DC7F30A00C3F30A511A
:100330000290401A019040286BDAC3F3130040F496
:10034000801B0098924620B10023D2EB030A63EB96
:100350000B0B01985946C0F14002504600F0B6F927
:1003600006460D4650465946019A00F0CEF910EB6C
:1003700008006141002487EA115284EAE7731A43B6
:1003800040D0009A62B3019A012A4FEA075215DC65
:10039000001B61EB02014FF0004202EA0752CDE977
:1003A0000042001C41F5801132462B4600F005FA50
:1003B00003B0BDE8F08F40462146F9E7001B61EB32
:1003C0000201001C41F5801300185B412018A2F5C2
:1003D000001747EB030140EAD570B6196D4111E0F3
:1003E0006D084FEA360645EAC0754FEA0752001B12
:1003F00061EB0201001C41F5801149084FEA300011
:100400000019514132462B4603B0BDE8F04F00F0D1
:10041000C5B90098012240000023D0EB020263EB33
:10042000E073009821464FEAE074B8EB000061EBFE
:100430000401E9E783F000435BE781F0004158E7FE
:100440002DE9FE4F81EA030404F0004421F000414D
:1004500000944FF0000B23F0004350EA01045ED0FB
:1004600052EA03045BD0C3F30A54C1F30A552C4487
:10047000A4F2F3340194A0FB0254C1F3130141F43C
:100480008011C3F3130343F4801301FB024400FB08
:10049000034E840A970A44EA815447EA8357A4FB2F
:1004A000076802958D0A05FB07854FEA932C04FB2C
:1004B0000C542705029D4FEA065847EA1637B5EB5C
:1004C00008056EEB070C870E920E47EA811742EA89
:1004D0008312A7FB0201B6EB0B0164EB00042B0DAA
:1004E00043EA0C335E1844EB1C50DA465146E7FBF6
:1004F0000201C5F313044FEA0B3343EA14534FEAE6
:100500000432019C43EA0603A4F10C040294009C0B
:10051000CDE900B400F051F903B0BDE8F08F002040
:100520000146F9E72DE9F04D81EA030404F0004BA0
:1005300021F0004514464FF0000A23F0004150EA34
:10054000050220D054EA01021DD0C5F30A57024625
:10055000C5F31303C1F31300C1F30A5640F4801529
:1005600043F48013A7EB0608101BD64608F2FD38AB
:1005700073EB050002D308F1010801E092185B411A
:10058000B8F1000F03DA00200146BDE8F08D00202D
:100590004FF48011064684460EE0171B73EB0507E7
:1005A00005D3121B63EB050306434CEA010C490813
:1005B0004FEA300092185B4150EA0107EDD152EA50
:1005C000030012D082EA040083EA0501084305D043
:1005D000101BAB4106D20122002306E000224FF09F
:1005E000004302E06FF0010253101AEB06004CEBDF
:1005F000085110EB0A0041EB0B01BDE8F04D00F093
:10060000CDB80EB5C10F80EAE0700844CA070021DA
:1006100040F233438DE80E000A460B4600F0CDF859
:1006200003B000BD00F0004220F00040C10DC0F357
:10063000160040F400007F2901DA00207047962957
:1006400003DCC1F19601C84001E096398840002AD8
:10065000F4D04042704770B5C1F30A5201F0004532
:100660000024C1F3130140F2FF3341F480119A4298
:1006700001DA002070BD40F233439A42A2F23342C5
:1006800003DC524200F031F800E090402C43F1D0FE
:10069000404270BD01F0004330B421F0004150EA07
:1006A000010206D00A0DA2F56072C1F31301002AFF
:1006B00002DC30BC00207047440F44EAC104C10092
:1006C000E01830BC00EBC25000F031B8202A04DB47
:1006D000203A00FA02F1002070479140C2F1200355
:1006E00020FA03F3194390407047202A04DB203A94
:1006F00021FA02F00021704721FA02F3D040C2F142
:1007000020029140084319467047202A06DBCB1788
:10071000203A41FA02F043EAE07306E041FA02F3BC
:10072000D040C2F120029140084319467047002989
:10073000A8BF7047401C490008BF20F00100704767
:1007400010B4B0FA80FC00FA0CF050EA010404BFC7
:1007500010BC704749B1CCF1200421FA04F411FA1D
:100760000CF118BF012121430843A3EB0C01CB1D61
:100770004FEA00614FEA102042BF002010BC7047D2
:1007800000EBC35010440029A4BF10BC7047401CAC
:10079000490008BF20F0010010BC704710B5141EBE
:1007A00073F1000408DA401C41F1000192185B412A
:1007B0001A4301D120F0010010BD2DE9F04D924601
:1007C0009B4611B1B1FA81F202E0B0FA80F2203218
:1007D0009046FFF77BFF04460F4640EA0A0041EAD5
:1007E0000B0153465A46084313D0114653EA010001
:1007F00019D0C8F140025046FFF777FF05460E4674
:10080000504659464246FFF761FF084305D0012094
:1008100004E020463946BDE8F08D0020054346EA55
:10082000E0762C4337430A986305E40AA0EB0800FE
:100830000022FD0A44EA47540A3002D5002001464E
:10084000E9E7010510196941DDE908450019694129
:10085000BDE8F04DA2E70000064C074D06E0E06859
:1008600040F0010394E8070098471034AC42F6D3F7
:10087000FFF792FC045812002458120080B50320A0
:1008800004F0E6FD40F602700422114611F038FC37
:1008900080BD000080B584B0ADF80E000291ADF8C7
:1008A0000620ADF80430002000F01CFF40F6017077
:1008B000042111F071FD062003F0A6FFFFE70020E0
:1008C00000F01EF80F2805DCFFE704F0B3FB03F08F
:1008D000FFFAF4E740F601700421142211F0E0FD64
:1008E0004FF4FA7000F0FEFE03F0C0FE41F27820F3
:1008F000C4F200000068032004F0C6FD04B080BD0F
:1009000083B08DF80B0040F20010C2F20000407975
:10091000102832D1FFE740F20010C2F20000006858
:1009200000090190019841F26412CFF6F972642136
:1009300000FB012043F61311C6F6A621A0FB01100F
:10094000400A8DF80A009DF80A00642804DCFFE7DD
:100950009DF80A00009002E064200090FFE70098F4
:100960008DF80A009DF80A0040F20011C2F2000161
:10097000087100200860487107E040F20010C2F2E0
:10098000000000798DF80A00FFE79DF80A0003B027
:100990007047000080B584B0ADF80E000291ADF84C
:1009A0000620ADF8043040F6037004210A2211F04D
:1009B00077FD40F20010C2F2000040790F2810DCF1
:1009C000FFE741F21820C4F20000026840F2001173
:1009D000C2F200010868104408604879013048718B
:1009E000FFE704B080BD000080B582B001900F2009
:1009F00003F07CFE102003F06DFE01994FF4C80057
:100A000040EA012003F056FE0620672103F036FE7F
:100A10000020772103F032FE032004F035FD02B000
:100A200080BD000080B590B08DF83F000E91002091
:100A30008DF83700FFE79DF8370005283BDCFFE71E
:100A40000E9901F10A00497A02F084FB70B1FFE7C8
:100A500001F0DEF9012809DBFFE79DF83F000E9960
:100A60000A3100231A4602F089FA1DE09DF83F0082
:100A700001F0BEFE58B9FFE700F014FB012806D1D3
:100A8000FFE79DF83F00132101F0F6FD0BE09DF814
:100A90003F0002A9019100F0BFFA01999DF83F00C3
:100AA00001F0ACFDFFE7FFE7FFE79DF837000130FD
:100AB0008DF83700BFE701F045FE032803DCFFE7B0
:100AC00003F0B2F9FFE710B080BD000080B5B4B00C
:100AD000ADF8CE003291ADF8C620ADF8C4309DF827
:100AE000C5008DF8C300BDF8CE00A0F60160014638
:100AF0000891182800F236810899DFE811F01900F2
:100B00003301330133013301330133013301330145
:100B10001F0033012E00330133013E003301330146
:100B20003301890033013301330147003301880069
:100B30009DF8C3003299FFF775FF13E132982F90AB
:100B40009DF8C3002F99097840F27402C2F20002A6
:100B500052F8212001F016FE04E132982E909DF803
:100B6000C3002E990B7840F27402C2F2000252F8D0
:100B70002320202302F090F8F4E09DF8C300012127
:100B80004FF6FF731A4602F05DF8EBE032982D90B5
:100B90009DF8C30001F02CFE01460020079001B330
:100BA000FFE72D98008806909DF8C30001F0BAFD7C
:100BB0000699828A00209142079012D1FFE72D9872
:100BC000023005909DF8C30001F0ACFD0146059888
:100BD00040310822FFF780FBB0FA80F0400907900F
:100BE000FFE7079800F001008DF8B3009DF8C300FF
:100BF00004909DF8B310039101F094FD039902460F
:100C00000498043201F0010101F054FDAAE0A9E0CA
:100C100032982B902B98007801460291072800F219
:100C2000A0800299DFE801F0049D9D9D6C6D9034D9
:100C300001F0EEF8014600201C29B8BF01208DF814
:100C4000AB0044F2F031C0F2120122A82022FFF7DB
:100C50001DFB2B9840780007002807D5FFE70D20E3
:100C60008DF88A0005208DF88E0006E001208DF8B1
:100C70008A0000208DF88E00FFE79DF8C3009DF8E4
:100C8000AB1001F00102012122AB01F055FC68E03C
:100C9000FFF7EAFAADF8780000208DF86700082029
:100CA0008DF86600FFE79DF86700072820DCFFE766
:100CB000FFF7DAFA9DF867201AA9019111448874A8
:100CC000FFF7D2FA01999DF867208854FFF7CCFA14
:100CD00001999DF866208854FFE79DF86700013070
:100CE0008DF867009DF8660001308DF86600DAE740
:100CF0009DF8C300072101221AAB01F01DFC30E072
:100D00002FE002F057F80189ADF8581040681590AF
:100D100002F050F8807E8DF85A0002F04BF803463E
:100D2000D3F80A00D3F80E10D3F81220D3F81630F7
:100D300014931392129111909DF8C3000521012282
:100D400011AB01F0F9FB0CE0022009A9009101F0C0
:100D500045FA009B9DF8C3000621012201F0ECFB3F
:100D6000FFE7FFE734B080BD80B58EB08DF8370067
:100D70009DF8370002A9019100F04EF901999DF804
:100D8000370001F03BFC0EB080BD000080B58EB096
:100D90008DF837000C910C980078012807D1FFE7F7
:100DA00040F24400C2F2000002F032F922E00C9856
:100DB000007817281DD1FFE70C984078472818D1F4
:100DC000FFE700F06FF9012806D1FFE79DF8370033
:100DD000132101F051FC0BE09DF8370001A90091AF
:100DE00000F01AF900999DF8370001F007FCFFE7C1
:100DF000FFE7FFE70EB080BD80B586B0ADF8160006
:100E00000491ADF80E20ADF80C309DF80F008DF870
:100E10000B00BDF816000146019140F601318842F1
:100E20001CD0FFE70198B0F5506F0CD0FFE7019898
:100E300040F6155188420CD0FFE7019840F61C514E
:100E400088420BD02BE09DF80B000499FFF79EFF22
:100E500025E09DF80B00FFF787FF20E001F0B0FFD1
:100E600002281BD1FFE702F00FFCB8B9FFE702F040
:100E7000DBFF40F6017004210091142211F010FBF9
:100E8000009940F60370642211F00AFB009940F6C5
:100E900004704FF47A7211F003FBFFE7FFE706B02E
:100EA00080BD000080B540F28000C2F20000016801
:100EB00014220A800068023045F2FC61C0F212017F
:100EC000FFF7E4F980BD000080B586B0ADF81600EC
:100ED0000491ADF80E20ADF80C3001F033FC8DF824
:100EE0000B009DF80B000146019120B1FFE701982E
:100EF000042810D01FE040F601700421142211F0E4
:100F0000CFFA062003F09CFC40F29C01C2F20001E3
:100F1000002008703CE040F601700421142211F01A
:100F2000BFFA062003F054FC40F29C01C2F200011B
:100F3000002008702CE040F29C00C2F20000007813
:100F40009DF80B10B0EB410F10DBFFE740F29C0166
:100F5000C2F200010020087040F601700421C8228E
:100F600011F09EFA062003F033FC10E040F29C01E1
:100F7000C2F20001087801300870062003F060FC1E
:100F800040F601700421142211F08AFAFFE7FFE70E
:100F900006B080BD80B58EB040F26230ADF836004C
:100FA00045F2FC61C0F212010DF121000190152201
:100FB000FFF76CF9019941F60D00ADF81E0040F203
:100FC000B600C2F20000039000230293024602F82A
:100FD000023F6B461A60C31C0920142201F0AAFECE
:100FE0000299039800F8221F069069460860431C86
:100FF000059316200DF11E010222049201F09AFEC3
:10100000049A059B069869460860FF200DF1360199
:1010100001F090FE0EB080BD80B584B08DF80F0059
:1010200002910299002081F82900029981F82A0092
:1010300002990D2081F828009DF80F0001F0D8FBDF
:1010400068B3FFE70299012081F82A000299022083
:1010500001F0C4F8029801909DF80F0001F062FBC6
:1010600001998446DCF82000DCF82420DCF82830E4
:10107000DCF82CC0C1F820C0CB618A6148610299BC
:101080004FF0FF3008610299002048629DF80F0080
:1010900001F048FB4078029981F82800FFE704B08E
:1010A00080BD000040F29A00C2F20000007800F01B
:1010B0000100704740F29A01C2F20001002008705E
:1010C0007047000080B584B0ADF80E000291ADF815
:1010D0000620ADF80430BDF80E0040F604718842D9
:1010E00003D1FFE7FFF7E6FFFFE704B080BD70B56F
:1010F0000024264600F12402243152F8043D51F820
:10110000045D5B1946EB06051B1945F1000490428E
:1011100004F001041360F0D1002350F8232012B929
:101120000133092BF9D1C3F10903436270BDF0B556
:101130000024A44600F12405243102F1240755F8C7
:10114000043D51F8046D9B194CEB0C061B1946F13C
:101150000004A84204F0010447F8043DEFD1002345
:1011600052F8231011B90133092BF9D1C3F1090346
:10117000536200239362F0BD10B5FFF7D8FF936A66
:101180001446ABB9536A082B0CD816D101230B4A6D
:1011900052F8230054F8231088420ED802D30133AA
:1011A000092BF5D12046BDE81040044903F0B0B941
:1011B0001046BDE8104000F003B810BD7C4312009B
:1011C00070B504468CB0014601AA0B4803F012F931
:1011D000234609AE154603CDB542186059602A462C
:1011E00003F10803F6D1286818600A9B63620023A4
:1011F000A3620CB070BD00BF7C431200F0B5826AE0
:1012000004468DB072BB1546364E00F1240151F8EC
:10121000043D56F804099B1845EB05021B1842F1E2
:1012200000028C4202F001020B60F0D100210D4659
:10123000221F04F1200652F8043F5B19580840EAC7
:10124000C1709642106003F00101F4D1002354F8FC
:10125000232012B90133092BF9D1C3F109036362C9
:101260000DB0F0BD436A082B23D80BD101231E4AD1
:1012700052F8230054F82310884203D819D30133BD
:10128000092BF5D12146184801AA03F0B3F82346EB
:1012900009AE154603CDB542186059602A4603F1E0
:1012A0000803F6D1286818600A9B63620023A362D2
:1012B000BCE7002215460B4F04F1240151F8046DE0
:1012C00057F80439B01AC01A9B1845EB05029E4224
:1012D00075EB020334BF012200228C420860EDD17D
:1012E000A4E700BF9C4312007C43120080B582B08B
:1012F0008DF807008DF806109DF807009DF8062070
:1013000040F21011C2F20001114481F821002420A2
:101310001DF0F2FE00211DF0B6FF014642F2024030
:101320000422022310F0AEFE00909DF80600009902
:1013300008709DF8070000994870009810F0CCFEE6
:1013400002B080BD80B582B08DF8070024201DF06A
:10135000D3FE9DF807101DF096FF01464FF4105084
:1013600004231A4610F08EFE00909DF807000099A5
:1013700008700099002088700099C87000990320B7
:1013800048709DF8072040F21011C2F2000111448C
:101390004870009810F0A0FE02B080BD80B584B007
:1013A0008DF80F00029140F21010C2F20000009080
:1013B0002821FEF786FF0099029848629DF80F00E9
:1013C000087041F20141C0F210010191242002F0A5
:1013D00089FD01994FF4506002F084FD019940F6B7
:1013E000016002F07FFD019940F6036002F07AFD92
:1013F000019940F61C5002F075FD04B080BD00005C
:1014000080B58CB0ADF82E000A91ADF82620ADF86D
:1014100024309DF825008DF82300BDF82E000146EC
:101420000591B0F5506F2CD0FFE7059840F61C51A0
:1014300088422FD0FFE7059840F60161884238D0F6
:10144000FFE7059840F60361884237D0FFE705982B
:1014500042F20141884247D0FFE7059842F2044139
:1014600088427DD0FFE7059842F23241884200F081
:101470008280FFE7059842F23341884200F0B18054
:10148000F6E00A980078032803D1FFE700F060F93E
:10149000FFE7EDE00A98079007980088242807D115
:1014A000FFE740F21011C2F2000101204874FFE78B
:1014B000DEE09DF82300FFF745FFD9E09DF82310FB
:1014C00040F21010C2F20000049042180021517244
:1014D0009DF8232002445170406900F003F90498FC
:1014E000C06900F0C7F8C3E00A984078B8BBFFE7CE
:1014F0009DF8231040F21010C2F2000001440120B8
:10150000487200208DF81B00FFE79DF81B0040F299
:101510001011C2F200010978884213DAFFE740F2A5
:101520001010C2F20000416A9DF81B0088479DF828
:101530001B10FFF7DBFEFFE79DF81B0001308DF865
:101540001B00E2E740F21010C2F200000390406975
:1015500000F0C8F80398C06900F08CF8FFE787E056
:101560000A9840789DF8232040F21011C2F2000141
:10157000114448707CE040F21011C2F200010020DA
:1015800008768DF81A00FFE79DF81A0040F2101156
:10159000C2F20001097888421BDAFFE740F210101E
:1015A000C2F200000290416A9DF81A008847014685
:1015B00002989DF81A20213081549DF81A10405C41
:1015C000FFF794FEFFE79DF81A0001308DF81A002E
:1015D000DAE740F21010C2F20000406900F082F831
:1015E00046E040F21011C2F20001002081F8200014
:1015F0008DF81900FFE79DF8190040F21011C2F2B2
:101600000001097888422BDAFFE740F21010C2F29D
:1016100000000190416A9DF8190088470146019831
:101620008DF818109DF81910084490F821009DF8C5
:10163000181088420DD0FFE79DF818009DF819108A
:10164000FFF754FE42F234400422114610F058FDD8
:10165000FFE7FFE79DF8190001308DF81900CAE790
:1016600040F21010C2F20000C06900F003F8FFE77A
:101670000CB080BD80B582B00190019840F210118D
:10168000C2F20001C8610198E8B1FFE701F05AF821
:10169000012818DBFFE740F21010C2F2000090F8BA
:1016A0002000C00770B9FFE7019A42F233400421DD
:1016B00010F0F6FE40F21011C2F20001012081F894
:1016C0002000FFE70CE042F23340042110F064FEFA
:1016D00040F21011C2F20001002081F82000FFE763
:1016E00002B080BD80B582B00190019840F2101127
:1016F000C2F2000148610198D8B1FFE701F022F879
:10170000012816DBFFE740F21010C2F20000007E55
:10171000C00768B9FFE7019A42F23240042110F095
:10172000BFFE40F21011C2F2000101200876FFE76F
:101730000BE042F23240042110F02EFE40F2101174
:10174000C2F2000100200876FFE702B080BD000071
:1017500080B588B040F21010C2F2000000788DF819
:101760000C0000208DF80B00FFE79DF80B0040F205
:101770001011C2F20001097888422ADAFFE79DF8C9
:101780000B0003A90A180120507004319DF80B20AA
:1017900001EBC20300225A809DF80B3001EBC3031A
:1017A0005A719DF80B2001EBC20304221A719DF8B7
:1017B0000B2001EBC20290719DF80B2042F2AD703C
:1017C00021F83200FFE79DF80B0001308DF80B0087
:1017D000CBE769461420486003A80860242104224E
:1017E0000023184601F078FB08B080BD80B540F6B4
:1017F0000111C0F210010120FFF7D0FDC820FFF752
:1018000039FF4FF41670FFF76DFF4A20FFF7ECF831
:1018100080BD000081B08DF803009DF8030038B151
:10182000FFE740F23401C2F200010120887306E0B4
:1018300040F23401C2F2000100208873FFE701B0DA
:101840007047000082B08DF80700ADF8041000204A
:101850008DF803009DF807001B2812DBFFE79DF8B9
:101860000700FB280DDCFFE7BDF80400B0F5A47FFE
:1018700007DBFFE7BDF8040040F6490188420BDBB7
:10188000FFE740F23401C2F200010020C8728881F3
:10189000FF208DF803000AE09DF8070040F23401B4
:1018A000C2F20001C872BDF804008881FFE79DF80C
:1018B000030002B07047000081B08DF803009DF86E
:1018C000030040F23401C2F20001C87301B0704756
:1018D00038B5244D102200212846FEF7F4FC40F2D2
:1018E0000113AB81C82300241F482B811DF00CFD80
:1018F000002007F0E9FE0DF0F7FE1DF09BFF1B4BEB
:1019000021461C701A4B20461C601A4B1C701A4B47
:101910001C60FFF797FF2046FFF77CFF2046FFF78C
:10192000CBFF0123154A1370154A1470154A146031
:10193000154A1460154A1460154A1460154A13704C
:10194000154B1C701DF094FF204607F039FA4BF63A
:101950008032124B2C731C60114B1C60114B1A60AF
:1019600038BD00BF98110020D83900203801002070
:101970004C010020480100205801002039010020BE
:1019800050010020A0000020A4000020A80000209A
:10199000AC0000204701002046010020103A002042
:1019A0000C3A0020143A002080B58AB0089000F06C
:1019B0002FFA8DF81F009DF81F001B2800F3FA80F6
:1019C000FFE740F60000C0F20800039000200290FC
:1019D00040F69870C0F208000078FF3818BF012068
:1019E0008DF807009DF80700C007002800F09580DB
:1019F000FFE79DF81F0000EBC001482000EBC1008D
:101A000021F0FAFD0290029820B9FFE700208DF83E
:101A10002700D3E000208DF806008DF80500FFE7D1
:101A20009DF805001B283EDCFFE79DF8050000EB54
:101A3000C00140F60000C0F2080000EBC1000690B3
:101A400006980078012827DBFFE7069800781C2815
:101A500022DCFFE702989DF8061001EBC10100EBC4
:101A6000C1009DF8051001EBC10240F60001C0F273
:101A7000080101EBC2014822FEF708FC9DF8062090
:101A8000501C029902EBC20201F832009DF80600D8
:101A900001308DF80600FFE7FFE79DF805000130F3
:101AA0008DF80500BCE702989DF8061001EBC10116
:101AB00000EBC10008994822FEF7E8FB9DF80620DC
:101AC000501C029902EBC20201F8320002989DF804
:101AD000061001EBC10110F83100089908709DF85B
:101AE000060001308DF8060000F05EF938B9FFE716
:101AF000029821F059FD00208DF827005EE040F6A5
:101B00000000C0F2080003909DF8060000EBC00042
:101B1000C00005900298049035E000208DF8040084
:101B2000FFE79DF804001B2828DCFFE79DF8040070
:101B300000EBC00140F60000C0F2080000EBC1005D
:101B4000069006980078FF2811D1FFE79DF8040061
:101B500000EBC00140F60000C0F2080000EBC1003D
:101B600003909DF8040001300899087006E0FFE733
:101B70009DF8040001308DF80400D2E70898049025
:101B800048200590FFE7012002F0BEFB039805996D
:101B90008908049A00F0B4FC0090002002F0B4FB25
:101BA000029821F001FD0098B0FA80F040098DF80C
:101BB000270003E000208DF82700FFE79DF82700AD
:101BC0000AB080BD80B586B004908DF80F1000205B
:101BD0008DF80700FFE79DF807001B282EDCFFE7C4
:101BE0009DF8070000EBC00140F60000C0F20800BD
:101BF00000EBC100029002980078012817DBFFE794
:101C0000029800781C2812DCFFE70298807F9DF87C
:101C10000F1088420BD1FFE7029818300499062272
:101C2000FEF75AFB18B9FFE70298059009E0FFE7B5
:101C30009DF8070001308DF80700CCE700200590E3
:101C4000FFE7059806B080BD80B584B00290002003
:101C50008DF80300FFE79DF803001B2827DCFFE752
:101C60009DF8030000EBC00140F60000C0F2080040
:101C700000EBC100019001980078012810DBFFE71C
:101C8000019800781C280BDCFFE70198303002999E
:101C90001022FEF721FB18B9FFE70198039009E035
:101CA000FFE79DF8030001308DF80300D3E7002023
:101CB0000390FFE7039804B080BD000010B596B014
:101CC000159000208DF853000190FFE701981B2824
:101CD00033D8FFE7019800EBC00140F60000C0F2E6
:101CE000080000EBC10102A84822FEF7CFFA9DF8D8
:101CF000080001281CDBFFE79DF808001C2817DC02
:101D0000FFE7DDF854E09DF853000EEB00110401ED
:101D1000DDF838C00F98109A119B4EF804C0CB60C4
:101D20008A6048609DF8530001308DF85300FFE74A
:101D3000FFE7019801300190C8E79DF8530016B005
:101D400010BD000080B584B08DF80F0000208DF824
:101D50000E009DF80F001C2820DCFFE700200090FB
:101D600002909DF80F0000EBC00140F2B870C0F285
:101D7000080000EBC1000190012002F0C5FA0198B3
:101D8000029A114600F0CAFB01460098B1FA81F1AF
:101D900049098DF80E1002F0B7FAFFE79DF80E0022
:101DA00000F0010004B080BD80B584B04FF0FF307A
:101DB00003900020029040F60000C0F2080001905D
:101DC000FFE7019840F6FE71C0F20801884219D879
:101DD000FFE701980068039988420ED0FFE70120D1
:101DE00002F092FA40F60000C0F2080000F07EFB1C
:101DF0000290002002F088FA04E0FFE70198043026
:101E00000190DEE70298B0FA80F0400904B080BD8E
:101E100083B000208DF80B000090FFE700981B288E
:101E20001FD8FFE7009800EBC00140F60000C0F2A9
:101E3000080000EBC10001900198007801280BDB3D
:101E4000FFE7019800781C2806DCFFE79DF80B00EF
:101E500001308DF80B00FFE7FFE70098013000909C
:101E6000DCE79DF80B0003B07047000040F601501E
:101E7000C4F200000078FF2807DBFFE740F60151BD
:101E8000C4F200010020087007E040F60151C4F2DE
:101E9000000108780A300870FFE7704780B58AB003
:101EA000ADF826000891ADF81E20ADF81C3008985A
:101EB000069040F28810C2F20000406805900020B1
:101EC0008DF813000698007801460191082854D82F
:101ED0000199DFE801F0050D272F384015491E0054
:101EE000059800788DF8130005984068039045E048
:101EF0000598007A8DF813000598C06803903DE0BE
:101F0000059890F820008DF813000598406A03901A
:101F100034E0059890F840008DF813000598406C67
:101F200003902BE00598007C8DF81300059840691C
:101F3000039023E0059890F828008DF81300059889
:101F4000C06A03901AE00598007E8DF8130005988A
:101F5000C069039012E0059890F830008DF81300E6
:101F60000598406B039009E0059890F838008DF8CB
:101F700013000598C06B039000E0FFE7BDF81C104C
:101F8000BDF81E209DF81300831C41F2034010F0A1
:101F900079F8029006980078029908709DF813006D
:101FA000029948709DF8130040B1FFE70298023093
:101FB00003999DF81320FEF769F9FFE7029810F0E6
:101FC0008BF80AB080BD000080B584B0ADF80E007B
:101FD000029140F28811C2F2000100200190486095
:101FE0000860BDF80E0008800298486042F2310196
:101FF000C0F210010091142001F074FF00994FF419
:10200000506001F06FFF009940F61C5001F06AFF2C
:10201000009941F2014001F065FF41F69D61C0F277
:10202000100141F2024001F05DFF019804B080BD53
:1020300080B586B0ADF816000491ADF80E20ADF86D
:102040000C30BDF8160001460191B0F5506F0CD070
:10205000FFE7019840F61C5188420FD0FFE7019836
:1020600041F20141884218D018E004980078032812
:1020700003D1FFE700F016F8FFE710E004980290A4
:1020800002980088142807D1FFE740F28811C2F2B5
:10209000000101208870FFE701E000E0FFE706B0E3
:1020A00080BD000080B584B040F28810C2F200000C
:1020B0000088ADF80C0069460220486003A808605B
:1020C000142104220023104600F006FF04B080BD56
:1020D00080B544F27841C0F2120140F2FF10FFF7E0
:1020E00073FF80BD10B5A8B0279027990020087015
:1020F0002798007801286ED1FFE74AF6BB20ADF89B
:10210000980041F29410CFF62270259049F678217C
:10211000CDF6BC61249142F20130C6F64500239011
:102120002291219020911F901E911D9044F2104108
:10213000C0F2120115A8019020220492FEF7A6F821
:10214000049A44F23041C0F212010DA80290FEF749
:102150009DF8049A44F25041C0F2120105A8039080
:10216000FEF794F80199049A279BBDF89800A3F80C
:1021700005002598C3F80100279B2198DDF888C049
:10218000DDF88CE0249CC3F81340C3F80FE0C3F8DB
:102190000BC0C3F80700279B1D98DDF878C0DDF859
:1021A0007CE0209CC3F82340C3F81FE0C3F81BC0A9
:1021B000C3F8170027982730FEF768F80299049AA9
:1021C00027984730FEF762F80399049A27986730FA
:1021D000FEF75CF8FFE728B010BD000080B5AEB098
:1021E0008DF8B7002C9101208DF8AF0000208DF8FC
:1021F00014008DF89B0005A8FFF774FF9DF8B70049
:1022000001460491092800F268810499DFE811F081
:102210000A003B007400AD00D4001A012901380106
:10222000470156019DF81400012808D1FFE72C99B9
:10223000BDF819008880DDF81500086022E04FF431
:1022400001202A902A9940F21400C2F200000622CE
:10225000FEF742F850B1FFE72A9940F2B000C2F20F
:1022600000000622FEF738F820B9FFE700208DF8BD
:10227000AF0006E02C992A9882888A80006808605E
:10228000FFE7FFE72DE19DF8140001280FD1FFE7DC
:102290002C99DDF81B00DDF81F20DDF82330DDF878
:1022A00027C0C1F80CC08B604A60086023E041F28F
:1022B0001000C0F208002A902C99DDF8A8C0DCF8C4
:1022C0000000DCF80420DCF80830DCF80CC0C1F8B1
:1022D0000CC08B604A6008602A9940F21400C2F278
:1022E00000001022FDF7F8FF20B9FFE700208DF86D
:1022F000AF00FFE7FFE7F4E09DF8140001280FD1DD
:10230000FFE72C99DDF82B00DDF82F20DDF83330C6
:10231000DDF837C0C1F80CC08B604A60086023E06C
:1023200041F22000C0F208002A902C99DDF8A8C0E4
:10233000DCF80000DCF80420DCF80830DCF80CC025
:10234000C1F80CC08B604A6008602A9940F2140002
:10235000C2F200001022FDF7BFFF20B9FFE7002006
:102360008DF8AF00FFE7FFE7BBE09DF81400012800
:1023700007D1FFE72C9805A927312022FDF786FF1A
:1023800019E041F2A070C0F208002A902A9940F2A8
:102390001400C2F200002022FDF79EFF30B1FFE7DB
:1023A0002C982A992022FDF771FF03E000208DF878
:1023B000AF00FFE7FFE794E09DF81400012810D17B
:1023C000FFE72C9805A90291473120220392FDF7DF
:1023D0005DFF0299039A2C9820306731FDF756FF74
:1023E0002FE041F2C070C0F208002A9041F2E07084
:1023F000C0F2080029902A9940F21400C2F20000AD
:102400002022FDF769FFB8B1FFE7299940F21400D7
:10241000C2F200002022FDF75FFF68B1FFE72C98B1
:102420002A9920220192FDF731FF019A2C98203041
:102430002999FDF72BFF03E000208DF8AF00FFE79F
:10244000FFE74EE09DF89B00012805D1FFE72C999E
:10245000BDF89C00088003E000208DF8AF00FFE786
:102460003FE09DF89B00012805D1FFE79DF89E0005
:102470002C99087003E000208DF8AF00FFE730E0F2
:102480009DF89B00012805D1FFE79DF89F002C993E
:10249000087003E000208DF8AF00FFE721E09DF811
:1024A0009B00012805D1FFE79DF8A0002C9908703A
:1024B00003E000208DF8AF00FFE712E09DF89B00DD
:1024C000012805D1FFE79DF8A1002C99087003E0D1
:1024D00000208DF8AF00FFE703E000208DF8AF008B
:1024E000FFE79DF8AF002EB080BD000080B582B040
:1024F00001905C2001680198884702B080BD00000F
:1025000080B584B003900291019240200368039843
:102510000299019A984704B080BD000080B584B04C
:102520000390029101923C20036803980299019A5A
:10253000984704B080BD000080B584B08DF80F00CE
:102540008DF80E108DF80D2002939DF80F000002FB
:1025500000F10901021D40F6146022230FF092FDE4
:1025600001909DF80E00019908709DF80D0000F093
:102570000100019948700198023002992022FDF76C
:1025800085FE9DF80E00072832D1FFE79DF80F0069
:1025900000EBC00040F25C61C2F20001B63101EB19
:1025A000C002DDF808E0DEF80000DEF80430DEF8F6
:1025B00008C0DEF80CE0C2F810E0C2F80CC093606E
:1025C00050609DF80F0000EBC00001EBC002029BC1
:1025D000D3F81200D3F81630536410640298008ABE
:1025E0009DF80F2002EBC20201EBC2018882FFE7D7
:1025F00001980FF071FD04B080BD0000B0B584B04B
:102600008DF80F0002919DF80F00000200F1090102
:1026100040F6026004222C230FF034FD0190019952
:10262000DDF808E0DEF80000DEF80420DEF808300F
:10263000DEF80CC0DEF81040DEF814504D610C617D
:10264000C1F80CC08B604A600860DEF81800DEF844
:102650001C20DEF82030DEF824C0DEF828E0C1F8C7
:1026600028E0C1F824C00B62CA61886101980FF0AC
:1026700033FD04B0B0BD000080B582B08DF8070016
:102680008DF806109DF80700000200F1090140F6E0
:102690000460042202230FF0F5FC00900099012051
:1026A00008709DF806000099487000980FF014FD1E
:1026B00002B080BD80B584B08DF80F008DF80E108B
:1026C00002929DF80F00000200F10901021D40F680
:1026D000186012230FF0D6FC01909DF80E0000F058
:1026E0000100019908709DF80E00C007A0B1FFE736
:1026F0000199DDF808C0DCF80000DCF80420DCF803
:102700000830DCF80CC0C1F80DC0C1F80930C1F8C0
:102710000520C1F80100FFE701980FF0DDFC04B0CF
:1027200080BD000081B08DF803009DF8030000EB30
:10273000C00140F25C60C2F2000000EBC100B630A4
:1027400001B0704740F25C60C2F20000007970474F
:1027500082B08DF803009DF8030007280BDCFFE72B
:102760009DF8031040F25C60C2F2000000EB011023
:102770003630019002E000200190FFE7019802B09E
:102780007047000080B584B08DF80F008DF80E10F2
:102790000292002001909DF80E0028B9FFE70298F0
:1027A00000880430009002E008200090FFE79DF8C8
:1027B0000F00000200F10901021DBDF8003040F6D3
:1027C0000B600FF05FFC0190029870B1FFE79DF87D
:1027D0000E0001990870019802300299009AFDF7E5
:1027E00055FD01980FF078FCFFE704B080BD0000B4
:1027F00080B584B08DF80F009DF80F0000F030F820
:1028000001460020029031B3FFE79DF80F0000EB76
:10281000C00140F25C60C2F2000000EBC10090F821
:10282000B61000200129019012DBFFE79DF80F0090
:1028300000EBC00140F25C60C2F2000000EBC1009E
:1028400090F8B61000201D29B8BF01200190FFE7C5
:1028500001980290FFE7029800F0010004B080BDEB
:1028600081B08DF802009DF80200072811DCFFE717
:102870009DF8021040F25C60C2F2000000EB011013
:10288000C08E4FF6FF71401A18BF01208DF803006B
:1028900003E000208DF80300FFE79DF8030001B07E
:1028A0007047000080B58CB0ADF82E000A91ADF8ED
:1028B0002620ADF824309DF825008DF82300BDF8C2
:1028C0002E00A0F6016001460291142800F2B881A2
:1028D0000299DFE811F01500B5016300B501B501FB
:1028E000B501B501B501B501B501B501B501B50138
:1028F000B501B501B5018C00B501A900B501000114
:102900000A98079040F25C60C2F200000179013140
:1029100001719DF8231000EB0112DDF81CE0DEF8D8
:102920000010DEF80430DEF808C0DEF80CE0C2F873
:1029300042E0C2F83EC0C2F83A30C2F83610012177
:1029400001709DF8231001EBC10100EBC1010020D3
:1029500081F8B600079901F10A00497A00F0FAFB04
:10296000D8B9FFE7079901F10A00497AFFF72AF978
:102970000690069880B1FFE79DF8230000EBC001A8
:1029800040F25C60C2F2000000EBC100B630069974
:102990004822FDF77BFCFFE7FFE751E19DF82300AC
:1029A000FFF726FFA0B1FFE70A9880783D280FD1F6
:1029B000FFE79DF8230000EBC00140F25C60C2F22B
:1029C000000000EBC10090F8B600FFF7BBF9FFE78D
:1029D00040F25C60C2F200000179013901719DF89A
:1029E000231000EB01114FF6FF70C88628E10A980A
:1029F0000590059800889DF8232040F25C61C2F2A2
:102A00000001363101EB02125080059840889DF894
:102A1000232001EB02129080059880889DF82320E6
:102A200001EB0211C8800BE10A980078002851D10F
:102A3000FFE79DF82300FFF7DBFE40B1FFE79DF8BD
:102A40002300FFF76FFE0078FFF77CF9FFE79DF8A2
:102A5000230000EBC00140F25C60C2F2000000EB1A
:102A6000C101002081F8B6008DF81300FFE79DF842
:102A7000130005281CDCFFE79DF82300FFF768FE24
:102A80009DF813201044807A9DF8231001EBC103B8
:102A900040F25C61C2F2000101EBC301114481F814
:102AA000CE00FFE79DF8130001308DF81300DEE73C
:102AB0009DF82300FFF74CFE407A9DF8231001EBB0
:102AC000C10240F25C61C2F2000101EBC20181F877
:102AD000D400FFE7B4E00A98039003980078023826
:102AE00001460191052800F2AA800199DFE801F072
:102AF00003A7A71A5377039881789DF8230000EB6A
:102B0000C00240F25C60C2F20000B63000EBC202CC
:102B100051709DF8231001EBC10100EBC100FEF7DD
:102B200043FF8CE09DF8230000EBC00140F25C60A5
:102B3000C2F20000B63000EBC102DDF80CE0DEF8B6
:102B40000210DEF80630DEF80AC0DEF80EE0C2F849
:102B50003CE0C2F838C0536311639DF8231001EBC9
:102B6000C10100EBC1020399CB8A9383D1F8121003
:102B700091610399097E9DF8232002EBC20200EBCC
:102B8000C20291779DF8231001EBC10100EBC10156
:102B90000120C87053E09DF8230000EBC00140F213
:102BA0005C60C2F20000B63000EBC102DDF80CE060
:102BB000DEF80210DEF80630DEF80AC0DEF80EE0BD
:102BC000C2F82CE0C2F828C0536211629DF82310AD
:102BD00001EBC10100EBC101012088702FE09DF8DD
:102BE000230000EBC00040F25C61C2F20001B6318C
:102BF00001EBC002DDF80CE0DEF80200DEF8063082
:102C0000DEF80AC0DEF80EE0C2F810E0C2F80CC030
:102C1000936050609DF8230000EBC00001EBC00200
:102C2000039B58699B69536410640398408A9DF81C
:102C3000232002EBC20201EBC2018882FFE7FFE71B
:102C40000CB080BD80B584B08DF80F008DF80E10EB
:102C5000ADF80C20ADF80A309DF80F00000200F12D
:102C600009014FF46160042206230FF00BFA019072
:102C70009DF80E00019900F001000870BDF80C00ED
:102C800001994880BDF80A000199888001980FF0E9
:102C900023FA04B080BD000080B58AB08DF827000B
:102CA00008910792069348208DF813000898007841
:102CB0000146029120B1FFE7029801281DD020E0D3
:102CC000089840880699884204D2FFE7089840880F
:102CD000019002E006980190FFE7019803900798A1
:102CE000023008990431039AFDF7D0FA0398079946
:102CF000088000208DF8130003E048208DF81300B1
:102D0000FFE79DF82700000200F1090140F60D6081
:102D1000042202230FF0B6F905900898007805996F
:102D200008709DF813000599487005980FF0D4F9C4
:102D30000AB080BD80B584B0DDF818C08DF80E00F3
:102D400002918DF80720009306980078C0F11F00CB
:102D50009DF807100231884204DAFFE700208DF861
:102D60000F0022E09DF8070001300099069A1278C2
:102D700088549DF80E00009A06990978114448700D
:102D80000098069909780844023002999DF80720B6
:102D9000FDF77CFA9DF8070006990A781044023086
:102DA000087001208DF80F00FFE79DF80F0004B0B8
:102DB00080BD000040F25C60C2F200000630704747
:102DC00040F25C60C2F200004088704780B588B075
:102DD000ADF81E000691ADF81620ADF81430BDF820
:102DE0001E0001460091B0F5506F0CD0FFE700982F
:102DF00040F6155188424ED0FFE7009840F61C512E
:102E0000884240D066E00698049004980078012833
:102E100005D1FFE700F074F900F068FC32E0049897
:102E20000078032805D0FFE704980078022804D131
:102E3000FFE704984078E8B1FFE7049800780C2891
:102E400005DBFFE70498007810280FDBFFE7049804
:102E50000078132805DBFFE704980078172805DBC6
:102E6000FFE70498007827280BD1FFE70498407803
:102E700038B1FFE740F25C61C2F200010120087046
:102E8000FFE7FFE726E040F25C61C2F200014888FC
:102E9000013048801EE00698039003980630FEF744
:102EA000D3FE02909DF817008DF80700029880B1BC
:102EB000FFE79DF8070000EBC00140F25C60C2F242
:102EC000000000EBC100B63002994822FDF7DEF9A0
:102ED000FFE7FFE708B080BD80B584B0DDF81CC017
:102EE000DDF818C08DF80F00ADF80C10ADF80A2011
:102EF000ADF80830BDF80A200798083083B240F6D4
:102F00001B5008210FF0BEF8019001991B2008709A
:102F10009DF80F0001994870BDF80C000199488098
:102F2000BDF80A0001998880BDF808000199C880A1
:102F3000069850B1FFE7079838B1FFE701980830CD
:102F40000699079AFDF7A2F9FFE701980FF0C4F878
:102F500004B080BD80B582B040F602500821042242
:102F6000012300930FF08EF801460098019101991A
:102F7000087001980FF0B0F802B080BD80B586B03F
:102F80008DF8170004918DF80F200293029828B94C
:102F9000FFE7FEF73DFF8DF80F00FFE79DF80F00FC
:102FA00008B9FFE731E09DF817000002021D9DF807
:102FB0000F00000100F1080340F6145008210FF043
:102FC00061F80190029848B1FFE701980830029932
:102FD0009DF80F201201FDF759F904E0019808301F
:102FE000FEF76CFEFFE70199172008709DF80F00AF
:102FF00001994870019904988288CA800068C1F8D4
:10300000020001980FF068F8FFE706B080BD0000ED
:1030100080B5A8B0279040F6045008210422302340
:1030200001930FF02FF8019A2690279940F25C60E7
:10303000C2F200000630FDF729F902A8FFF752F8A6
:103040009DF8080088BBFFE741F21C00C0F20800B1
:10305000006840F25C61C2F20001C86141F21800F0
:10306000C0F208000068886141F21400C0F2080054
:103070000068486141F21000C0F208000068086171
:103080002798807E80B9FFE741F20400C0F2080073
:10309000008840F25C61C2F20001C8814FF4012057
:1030A0000068C1F80A00FFE7FFE7269840F25C617C
:1030B000C2F2000106313022FDF7E8F826980FF041
:1030C0000BF828B080BD000080B584B0039040F2BA
:1030D0005C61C2F200010220087040F60D50082128
:1030E0000422522301930EF0CDFF019A0290029820
:1030F0000399FDF7CBF802980EF0EEFF04B080BD07
:1031000080B582B040F25C60C2F20000009040F2F4
:10311000F621FDF7D6F80099002008708DF8070019
:10312000FFE79DF80700072812DCFFE79DF807106E
:1031300040F25C60C2F2000000EB01114FF6FF703C
:10314000C886FFE79DF8070001308DF80700E8E723
:1031500002B080BD83B002908DF807109DF8071073
:103160000020012900900AD1FFE70298407900F081
:10317000C0004038B0FA80F040090090FFE70098A6
:1031800000F0010003B0704780B586B0ADF81600BE
:103190000491ADF80E20ADF80C309DF80D000290B2
:1031A00000208DF807008DF806000498008840F68E
:1031B000C811C2F200014A8A801AADF804000498CE
:1031C0000088498A884204DCFFE707208DF8070061
:1031D0002DE0BDF8040040F6C811C2F20001098BD1
:1031E000884210DAFFE740F6C810C2F200004069DA
:1031F000BDF8041001EBC10100EB8100408A00051D
:10320000002804D4FFE703208DF807000EE040F605
:10321000C810C2F200004069BDF8041001EBC10102
:1032200000EB8100807E8DF80600FFE7FFE7029843
:103230000002073081B240F61840042206230EF047
:1032400021FF009004980088009908809DF80600EE
:10325000009948809DF807000099087100980EF0C9
:103260003BFF06B080BD000080B586B0ADF816000B
:103270000491ADF80E20ADF80C309DF80D008DF8DE
:103280000B00BDF81600A0F604400146019113287A
:103290004ED80199DFE801F00A4C4C4C4C4C4C4C98
:1032A0004C4C4C4C4C4C4C164C284C3A9DF80B104A
:1032B00040F6C810C2F2000000EB4101488801301E
:1032C000488035E040F6C810C2F20000406950B1B5
:1032D000FFE7BDF816000499BDF80E20BDF80C30CC
:1032E00000F028F8FFE723E040F6C810C2F2000023
:1032F000406950B1FFE7BDF816000499BDF80E20F3
:10330000BDF80C3000F0D0F8FFE711E040F6C8102F
:10331000C2F20000406950B1FFE7BDF81600049901
:10332000BDF80E20BDF80C30FFF72EFFFFE7FFE7DA
:1033300006B080BD70B58AB0ADF826000891ADF832
:103340001E20ADF81C309DF81D00069000208DF861
:1033500013008DF812000898008840F6C811C2F2D8
:1033600000014A8A801AADF8100008980088498A3E
:10337000884204DCFFE701208DF812002DE0BDF843
:10338000100040F6C811C2F20001098B884210DA21
:10339000FFE740F6C810C2F200004069BDF8101007
:1033A00001EBC10100EB8100408A10F4905F04D171
:1033B000FFE702208DF812000EE040F6C810C2F2BE
:1033C00000004069BDF8101001EBC10100EB810065
:1033D000807E8DF81300FFE7FFE7069800020730B4
:1033E0009DF813108B1D81B240F6144004220EF09C
:1033F00049FE05909DF81200002844D1FFE740F6F1
:10340000C810C2F200004069BDF8101001EBC10104
:1034100000EB8100006A10B3FFE740F6C810C2F26B
:1034200000004069BDF8101001EBC10200EB820002
:10343000D0F81CE0D0F820C09DF81800089A128837
:10344000059B05339DF813506C4640F61346A66065
:103450006560C4F800E0E0478DF8120012E00598BE
:10346000053040F6C811C2F200014969BDF81020CC
:1034700002EBC20201EB8201C9699DF81320FCF73F
:1034800005FFFFE7FFE708980088059908809DF889
:103490001300059948809DF8120005990871059858
:1034A0000EF01AFE0AB070BD70B594B0ADF84E00C3
:1034B0001291ADF84620ADF844309DF845001090CB
:1034C00010980002073081B240F6164004231A46D5
:1034D0000EF0D8FD0F9000208DF83B001298008868
:1034E00040F6C811C2F20001498A401AADF838000E
:1034F0001298408820B1FFE707208DF83B002DE0AF
:103500001298008840F6C811C2F20001498A884228
:1035100004DCFFE701208DF83B001EE0BDF8380019
:1035200040F6C811C2F20001098B884210DAFFE7A9
:1035300040F6C810C2F200004069BDF8381001EB37
:10354000C10100EB8100408A10F4406F04D1FFE715
:1035500003208DF83B00FFE7FFE7FFE79DF83B0006
:10356000002840F08480FFE740F6C810C2F2000057
:103570004069BDF8381001EBC10100EB8100006A21
:10358000002846D0FFE740F6C810C2F200004169AB
:10359000BDF8380000EBC00201EB8201CA69089255
:1035A0000A6A0992109A0A920B90129802880C9259
:1035B000821D0D928088498B884204DAFFE71298B9
:1035C000808807900DE040F6C810C2F20000406904
:1035D000BDF8381001EBC10100EB8100408B079072
:1035E000FFE7DDF824C0089B0C9A0B990A98DDF8D8
:1035F00034E0079D6C4640F61546A660ADB26560A6
:10360000C4F800E0C0B289B292B2E0478DF83B0046
:103610002CE040F6C810C2F200004069BDF8381036
:1036200001EBC10100EB8101C86905901298821D70
:1036300006928088498B884204DAFFE712988088D6
:1036400004900DE040F6C810C2F200004069BDF8D9
:10365000381001EBC10100EB8100408B0490FFE7C3
:1036600006990598049AFCF711FEFFE7FFE7129808
:1036700000880F9908809DF83B000F9988700F987B
:103680000EF02AFD14B070BD40F6C810C2F2000062
:103690000088704784B0ADF80E000291ADF80620A6
:1036A000ADF80430BDF80E0040F6013188421AD161
:1036B000FFE7029800900098807898B9FFE740F6FD
:1036C000C810C2F20000018801310180408A40B96F
:1036D000FFE70098008840F6C811C2F20001488256
:1036E000FFE7FFE7FFE704B07047000040F6C811AE
:1036F000C2F200010020886148610861C8608860EA
:1037000048600860704700002DE9F04F144600251E
:103710008246ADF5297D00F12C0324220F4600F1ED
:10372000580901F12C0B204601F1580804F12C0630
:1037300000210193FCF7C7FD242229463046C4E945
:103740000955FCF7C0FD04F1580318462422294608
:10375000C4E914550093FCF7B6FD24222946C4E9B8
:103760001F5503A8FCF7AFFD242229460EA8CDE97A
:103770000C55FCF7A8FD2422294619A8CDE91755B8
:10378000FCF7A1FD2422294624A8CDE92255FCF707
:103790009AFD242229462FA8CDE92D55FCF793FD4B
:1037A000242229463AA8CDE93855FCF78CFD24227D
:1037B000294645A8CDE94355FCF785FD2422294635
:1037C00050A8CDE94E55FCF77EFD242229465BA882
:1037D000CDE95955FCF777FD2422294666A8CDE9A5
:1037E0006455FCF770FD2422294671A8CDE96F5578
:1037F000FCF769FD294624227CA8CDE97A55FCF71F
:1038000062FD50469C49CDE985551BF0DBFB002845
:103810007ED12C310AF12C001BF0D4FB002877D18B
:1038200048462C311BF0CEFB002871D13846583960
:103830001BF0C8FB00283FD158462C311BF0C2FBBF
:10384000002839D140462C311BF0BCFB024698BB06
:103850002346A1F1580CA1F1380E674603CF7745F6
:1038600018605960BC4603F10803F6D13868186047
:10387000824B03F1200C1F4603CF67453060716017
:103880003B4606F10806F6D101233868306023650F
:103890007B4B009D03F120061C4603CCB4422860FC
:1038A0006960234605F10805F6D1186828601046BE
:1038B0000DF5297DBDE8F08F3B46224607F1240136
:1038C00053F8040B8B4242F8040BF9D1DA467B6AB9
:1038D0006362BB6AA3620BF124035AF8042B9A4576
:1038E00046F8042BF9D13B6D009D23657B6D636524
:1038F00008F1240358F8042B984545F8042BF9D116
:10390000FB6FE367D7F88030C4F880300022CEE741
:10391000384659491BF056FB00283BD158462C31FC
:103920001BF050FBB0BB40462C311BF04BFB02465A
:1039300080BB514620460AF1240751F804CBB94216
:1039400040F804CBF9D1DAF82410DDF804B0616254
:10395000DAF82810A1620BF124015BF8040B8B4507
:1039600046F8040BF9D1DAF85010009D2165DAF819
:103970005410616509F1240159F8040B894545F893
:10398000040BF9D1DAF87C10DAF88030E167C4F87A
:1039900080308CE7514638461BF014FB019000281C
:1039A00070D158460AF12C011BF00CFB019A70B340
:1039B0002346314F07F1200EBC46BCE80300F44516
:1039C00018605960674603F10803F5D1DCF8000080
:1039D00018602A4B03F1200C1F4603CF6745306067
:1039E00071603B4606F10806F6D101233868306065
:1039F0002365234B009D03F120061C4603CCB442F3
:103A000028606960234605F10805F6D14DE73A6D57
:103A1000012A37D8FA6C002A34D12346164A02F11B
:103A2000200C174603CF6745186059603A4603F1EA
:103A30000803F6D138681860104B03F120071A46C6
:103A400003CABA4230607160134606F10806F6D127
:103A50000123106830602365094B009D03F12004A9
:103A60001A4603CAA24228606960134605F1080598
:103A7000F6D11068286049E788451200B445120065
:103A8000E04512004946584603AA00F079FB41463A
:103A90000EAA0AF12C0000F073FB4946384619AA19
:103AA00000F06EFB4146504624AA00F069FB24A9B1
:103AB00019A81BF087FA0190002845D10EA903A888
:103AC0001BF080FA019A002837D023465F4F07F198
:103AD000200EBC46BCE80300F445186059606746F8
:103AE00003F10803F5D1DCF8000018600023C4E9F5
:103AF0000933574B03F1200C1F4603CF6745306055
:103B000071603B4606F10806F6D1002301213868B2
:103B10003060C4E914134F4B009D03F120071E468B
:103B200003CEBE4228606960334605F10805F6D130
:103B3000002330682860E36729E721465046009259
:103B400000F08AF8009AB2E600272FAA0EA903A86F
:103B500000F074FC3AAA24A919A800F06FFC4146B1
:103B6000484650AA00F00CFB2422002187A8FCF74D
:103B7000AAFB2422394692A8CDE99077FCF7A3FB53
:103B8000242239469DA8CDE99B77FCF79CFB3AA9F6
:103B900008465BAACDE9A67700F0F2FA66AA3AA930
:103BA0005BA800F0EDFA2FA9084671AA00F0E8FA28
:103BB0007CAA24A95BA800F0E3FA02219DAA7CA8B4
:103BC00000F0BBFA87AA50A971A800F0D9FA92AA0E
:103BD00066A987A800F032FC45AA9DA992A800F02A
:103BE0002DFC224645A93AA800F0CAFA24223946FB
:103BF00087A8FCF768FB2422394692A8CDE9907784
:103C0000FCF761FB242239469DA8CDE99B77FCF7A0
:103C10005AFB87AA45A97CA8CDE9A67700F00EFC3F
:103C200092AA87A92FA800F0ABFA9DAA0EA966A8B0
:103C300000F0A6FA32469DA992A800F0FFFB009A78
:103C400050A966A800F09CFA012230E688451200CF
:103C5000B4451200E0451200F0B5036D0546012B96
:103C60000C46FBB000F12C0600F1580701D8C36CDC
:103C70008BB128465E491BF0A5F9002847D1304694
:103C80002C311BF09FF9002841D138462C311BF014
:103C900099F900283BD12346554A02F120061546E2
:103CA00003CDB542186059602A4603F10803F6D1E6
:103CB0002868504A1860002302F12006C4E909333D
:103CC00004F12C03154603CDB542186059602A460D
:103CD00003F10803F6D12868012218600023C4E923
:103CE0001423454A04F1580302F12006154603CD7A
:103CF000B542186059602A4603F10803F6D12868D6
:103D000018600023C4E91F3300207BB0F0BD3946A2
:103D1000284659AAFDF730FA3946284664AA00F029
:103D20008DFB6FAA64A959A800F02AFA01AA6FA80E
:103D3000032100F002FA394630460CAA00F020FABE
:103D400030466FAA0CA900F01BFA284617AA6FA9E3
:103D500000F016FA01A9084664AA00F011FA6FAA49
:103D600017A8082100F0E9F922AA6FA964A800F0B9
:103D700065FB6FAA0CA922A800F002FA22466FA8E0
:103D8000022100F0DAF93146304638AA00F0F8F99D
:103D90000CA908462DAA00F0F3F943AA2DA938A8CA
:103DA00000F0EEF94EAA43A8082100F0C6F959AA7E
:103DB00017A8042100F0C1F964AA22A959A800F0AB
:103DC0003DFB6FAA64A901A800F0DAF904F12C0206
:103DD0004EA96FA800F032FB6FAA0CA92DA800F025
:103DE000CFF9082104F158026FA800F0A6F98BE77B
:103DF00088451200B4451200E045120070B5044633
:103E00000E4615468CB001A9583004F03FFA3246F0
:103E1000204601A900F0B4F92A4601A904F12C00BA
:103E200000F0AEF90CB070BD80B540F65020C2F283
:103E30000000007C58B1FFE740F65021C2F20001BB
:103E40004FF4C86088844FF47A60C88408E040F674
:103E50005021C2F20001202088843020C884FFE76E
:103E600040F65020C2F200002030FFF72DF980BD4F
:103E700010B504460EF06CF84FF4805200200F4944
:103E80000EF0E0F84FF4006201200D490EF0DAF870
:103E90004FF4805202200B490EF0D4F80022032088
:103EA00009490EF0CFF8012C01BF084AD2F80035BD
:103EB00043F48073C2F8003510BD00BFB419002070
:103EC000A8110020C0290020CC390020001000409B
:103ED000034B5B89DB0701D40DF072BF704700BF55
:103EE0009811002080B584B0ADF80C0002910C2030
:103EF0001FF082FB0190019820B9FFE700208DF8A8
:103F00000F0033E0BDF80C00019908800298019978
:103F1000486001990020886040F65C50C2F20000C1
:103F2000006838B9FFE7019840F65C51C2F2000121
:103F3000086017E040F65C50C2F200000068009094
:103F4000BDF80C00029900F081F8FFE70098806846
:103F500020B1FFE7009880680090F7E7019800998A
:103F60008860FFE701208DF80F00FFE79DF80F0044
:103F700004B080BD80B586B0ADF816000491ADF8F0
:103F80000E20ADF80C3040F65C50C2F20000006824
:103F900002909DF817008DF807009DF807000B3878
:103FA0000146009103282CD80099DFE801F0201683
:103FB0000C02BDF816000499BDF80E20BDF80C30B7
:103FC000FEF770FC1DE0BDF816000499BDF80E2048
:103FD000BDF80C30FEF7FAFE13E0BDF816000499A8
:103FE000BDF80E20BDF80C30FFF73EF909E0BDF832
:103FF00016000499BDF80E20BDF80C30FFF74AFBFF
:10400000FFE7FFE70298F0B1FFE702980088BDF8EC
:104010001610884207D0FFE7029800889DF8071025
:1040200088420CD1FFE70298D0F804C0BDF8160012
:104030000499BDF80E20BDF80C30E047FFE7029868
:1040400080680290DEE7002006B080BD80B588B0B1
:10405000ADF81C00069100208DF80F0040F65C5072
:10406000C2F20000006820B9FFE700208DF81F00B1
:104070005FE040F65C50C2F2000001680591006804
:104080000088BDF81C10884218D1FFE740F65C504C
:10409000C2F2000000684068069988420ED1FFE72E
:1040A00040F65C51C2F2000108688068086005981B
:1040B0001FF07AFA01208DF80F0033E0FFE7059832
:1040C0000490059880680590FFE70599002002900C
:1040D000A1B1FFE705980188BDF81C20012091429D
:1040E000019008D1FFE7059840680699401A18BF6B
:1040F00001200190FFE701980290FFE70298C007B6
:104100000028DCD1FFE7059858B1FFE705988068E3
:104110000499886005981FF047FA01208DF80F0078
:10412000FFE7FFE79DF80F0000F001008DF81F008A
:10413000FFE79DF81F0008B080BD0023F0B40446DF
:1041400010469C4604F1240200F12405674652F80B
:10415000046DE6FB0137A24245F8043D3B46F5D12C
:10416000002350F8232012B90133092BF9D1C3F1F0
:1041700009034362A36AF0BC83621EF065BF0000BE
:104180002DE9F04FA1B00DF1300805460C46174659
:10419000002148224046FCF796F80022082091466C
:1041A000CDE91E220DF1740C6646002355F820104F
:1041B00004F1240E4A465EF804ADE1FB0A32934650
:1041C00032689B1846F804394BF100037445F1D16D
:1041D0000138431CACF1040CE6D1414642460023B1
:1041E00052F8040B10B90133122BF9D1AA6AA06A54
:1041F0000025121A18BF0122C3F112031E931F9249
:1042000051F8040B08B9092D41D1082B0B9209DC98
:104210000CD10A232F4A52F8230058F82310884261
:1042200037D003D258F82530002B36D020AB03EB23
:10423000850401AE503C0FCC0FC60FCC0FC62368CF
:1042400001AA3360002352F8041B11B90133092B72
:10425000F9D1C3F109030A930935112D01A81ED91B
:104260001EF0F2FE3A4601AB09AD1C4603CCAC424F
:1042700010605160234602F10802F6D120681060F8
:104280000A9B7B620B9BBB6221B0BDE8F08F0135BE
:10429000B6E70133122BBED1C4E70135C2E701AC4A
:1042A00002AE1EF0D1FE0FCE0FC496E80F0084E8D8
:1042B0000F0058F8253001AA0993002352F8041B77
:1042C00011B90133092BF9D1C3F109030A9301355F
:1042D000C3E700BFB45712000022431E934210B53B
:1042E000C0F10004C1E900344B61886018BF0923A4
:1042F0004FF0FF3008BF0823C1E90322C1E90600DF
:104300000C628A624B6210BD80B582B08DF80700E6
:1043100040F24C51C4F20001042008609DF80700EF
:1043200000F0010000281CBF47F2F510C7F2B310DF
:1043300040F24851C4F20001086040F23850C4F223
:10434000000000686FF39F20A0F12000B0FA80F019
:104350004FEA50108DF806009DF8060000F00100AD
:104360009DF8071001F00101884207D0FFE700F037
:10437000B5FA00F0A1FAFFE700BFFDE702B080BD8B
:10438000EFF30980BFF36F8F0D4B1A6820E9F00F30
:1043900010602DE908404FF0A00080F311881EF056
:1043A0006FFF4FF0000080F31188BDE808401968E6
:1043B0000868B0E8F00F80F30988BFF36F8F70478B
:1043C0002411002000000000000000000000000098
:1043D000074B19680868B0E8F00F80F30988BFF34D
:1043E0006F8F4FF0000080F311884EF00D0E704774
:1043F00024110020F0B500240823274651F823504B
:1044000050F823C0ACEB04062C19A6EB050647EBCD
:104410000705A44577EB050434BF0124002442F8C6
:104420002360013BEAD2002352F8231011B9013373
:10443000092BF9D1C3F109035362F0BDF8B5876ABE
:1044400003460D4614468E6A002F39D1FEB9426AE2
:10445000496A914204D314D8C2F10902082A07D943
:10446000224629461846FFF7C5FF0023A36211E044
:1044700055F8220053F82210884202D8F0D30132B6
:10448000ECE7224619462846FFF7B4FF1BE0FCF78D
:104490004EFE9762636A082B0CD835D101231B4A64
:1044A00052F8230054F8231088422DD802D3013348
:1044B000092BF5D12046BDE8F840144900F028B892
:1044C00046B9FCF734FE01232046A362BDE8F8405C
:1044D000FCF776BE4A6A416A8A4204D810D3C2F118
:1044E0000902082A03D9224619462846BBE753F891
:1044F000220055F82210884202D8F4D30132F0E7A6
:10450000224629461846BFE7F8BD00BF7C4312008B
:104510000022F0B5174601F1240400F1240554F8F7
:10452000043D55F804CDACEB03069B18A6EB020640
:1045300047EB07029C4577EB020334BF01220022C0
:10454000A1422E60EBD1002350F8232012B9013391
:10455000092BF9D1C3F109034362F0BD70B50446DC
:10456000A26A08468B6A8CB0002A37D17BBB636A8B
:104570004A6A934204D813D3C3F10903082B06D91E
:10458000014620460CB0BDE87040FFF7C1BF50F8AF
:10459000231054F82320914202D8F1D30133EDE7E0
:1045A000214601AAFFF726FF234609AE154603CD93
:1045B000B542186059602A4603F10803F6D128680D
:1045C00018600A9B63620123A3620CB070BD0146B0
:1045D00020460CB0BDE87040FCF789BD002BF6D03A
:1045E0004B6A626A934204D8CAD3C3F10903082B09
:1045F00014D9214601AAFFF7FDFE234609AE154650
:1046000003CDB542186059602A4603F10803F6D17C
:10461000286818600A9B63620023D5E754F82310CA
:1046200050F823209142ABD8E3D30133DFE70000F9
:1046300080B582B04FF0A00080F31188BFF36F8F78
:10464000BFF34F8F00901EF07FFE40B1FFE74EF6A4
:104650000451CEF200014FF080500860FFE70020C7
:104660000190019880F3118802B080BD41F27C2155
:10467000C4F200014FF498500860704782B0019076
:1046800000910098019A41F24021C4F2000141F8E2
:10469000220002B07047000082B0019000910098A3
:1046A000019A41F24021C4F2000141F8220002B017
:1046B0007047000081B0009000984FF60171C0F281
:1046C000FF01084041F27021C4F20001086001B00E
:1046D0007047000081B00090009800F01F0041F288
:1046E0007421C4F20001086001B0704781B00090ED
:1046F000009800F03F0041F26021C4F20001086020
:1047000001B0704781B00090009800F03F0041F286
:104710006021C4F20001086001B0704780B582B02A
:10472000019040F21051C4F200010868092262F3BE
:1047300003000860019840F20011C4F20001086013
:1047400000F082FC02B080BD82B001900091009820
:10475000019A40F20071C4F2000141F8220002B057
:104760007047000082B0019000910098019A40F2D9
:104770000071C4F2000141F8220002B0704700004D
:1047800084B003900291019200930298039A40F240
:104790004C71C4F2000141F8220001989DF800100C
:1047A000084340F25C71C4F20001086004B0704735
:1047B00080B582B001900198122806D3FFE72C2023
:1047C0000168019811388847FFE702B080BD0000FA
:1047D00081B00090009940F20070C4F2000050F8DF
:1047E000210010F03C0F0DD1FFE7009840F200715E
:1047F000C4F2000151F8200040F00100009A41F895
:104800002200FFE701B0704781B00090009940F2AC
:104810000070C4F2000050F8210010F03C0F0DD1E0
:10482000FFE7009840F20071C4F2000151F8200047
:1048300020F00100009A41F82200FFE701B0704724
:1048400081B00090009940F20070C4F2000050F86E
:10485000210010F03C0F0DD1FFE7009840F20071ED
:10486000C4F2000151F8200080F00100009A41F8E4
:104870002200FFE701B0704780B584B00390ADF827
:104880000A100192542003680398BDF80A10019A97
:10489000984704B080BD000080B584B00390ADF8A7
:1048A0000A100192542003680398BDF80A10019A77
:1048B000984704B080BD00004EF28021CEF2000186
:1048C0004FF0FF3008604EF28421CEF20001086004
:1048D0004EF28821CEF20001086070474EF280113E
:1048E000CEF200014FF0FF3008604EF28411CEF29C
:1048F000000108604EF28811CEF200010860704796
:1049000080B584B08DF80B00002000909DF80B005E
:104910008DF807009DF80700692804D1FFE76B2098
:104920008DF80B00FFE79DF80B1041F61000C0F268
:10493000080002AAFFF7A0FF00909DF80700692871
:1049400006D1FFE7BDF808000238ADF80800FFE720
:10495000009801280AD0FFE79DF8080041F21431C1
:10496000C4F2000108700020039002E012200390BE
:10497000FFE7039804B080BD80B58AB08DF82700AA
:104980008DF8261000200690059004909DF82600D2
:10499000C007A8BBFFE745F2AC70C0F21200017877
:1049A000ADF81E108078ADF81C009DF81E1041F681
:1049B0001000C0F2080002900DF12202FFF76CFF18
:1049C0000146029806919DF81C1008AAFFF764FFA3
:1049D00005900698012804D0FFE7059801280ED11C
:1049E000FFE745F2A570C0F212000178ADF8221081
:1049F0008078ADF820004FF448700490FFE734E071
:104A000045F2AC70C0F21200C178ADF81E1080798A
:104A1000ADF81C009DF81E1041F62000C0F2080001
:104A200001900DF12202FFF737FF01460198069130
:104A30009DF81C1008AAFFF72FFF05900698012883
:104A400004D0FFE7059801280ED1FFE745F2A570D5
:104A5000C0F21200C178ADF822108079ADF82000C4
:104A60004FF448700490FFE7FFE79DF827008DF8AA
:104A70000F009DF80F00BDF81E30C01ABDF82020B1
:104A8000BDF82210521A504300EB80004000BDF8E0
:104A90001C20D21A90FBF2F001EB810100EB4100E7
:104AA000FBF7AFFD002200920023C4F21403FBF7D2
:104AB00020FC009A0023C4F22403FBF733FDFBF72C
:104AC000CAFDADF824009DF82600C00740B9FFE7F5
:104AD0009DF8240041F21431C4F20001087007E08F
:104AE0009DF8240041F21831C4F200010870FFE77C
:104AF00004980AB080BD000080B58EB00D900C20E7
:104B00000C9000200390ADF82E00ADF82C000A9018
:104B100009908DF823000790069046F2A000C4F299
:104B200002200068002818BF01208DF8170041F608
:104B3000F800C0F208000121049106AA00F054FA1E
:104B4000039A04981621C4F201010B788DF82230E3
:104B500041F20433C4F200031B78ADF82C300A7024
:104B60000C9B6522C4F20102137008700C9810703F
:104B70009DF8220008700D98062805DCFFE70D98C7
:104B800010F1120F04DCFFE74FF444700990D4E1F8
:104B90000D98B0F1FF3F75DCFFE76E20FFF7B0FE28
:104BA0000A900A9850B1FFE74FF44870099041F21B
:104BB0001431C4F2000123200870FFE70D9800EBC8
:104BC00040016E2000EB4100B0F1FF3F2CDCFFE71D
:104BD0000D9800EB40016E2000EB410046F267614A
:104BE000C6F2666180FB0101881000EBD1700C9069
:104BF0000C9810F1040F04DCFFE76FF002000C903A
:104C000011E00C98013020B9FFE76FF001000C9023
:104C100008E00C98023020B9FFE74FF0FF300C900D
:104C2000FFE7FFE7FFE718E00D9800EB40016E207B
:104C300000EB4100FBF7E5FC002202920023C4F2E6
:104C40001403FBF756FB029A0023C4F22403FBF77C
:104C500069FCFBF700FD0C90FFE71621C4F201018F
:104C600008788DF82200002008700C986522C4F2A4
:104C700001021070012008700C9810709DF822003D
:104C8000087059E10D98002800F15181FFE70D9857
:104C9000022800F34C81FFE701200190FFF732FD6D
:104CA00000204721FFF7F8FC019841F25831C4F287
:104CB00000010A688DF8212008600D98022805D0AF
:104CC000FFE70D98002840F09280FFE70D9858BB51
:104CD000FFE741F67000C0F2080070210DF12E02CE
:104CE000FFF7DAFD0A900A9838B1FFE74FF44870F1
:104CF00009900C20ADF82E0015E00698162811D367
:104D0000FFE79DF81700C00728B1FFE79DF82F00C7
:104D1000ADF82E00FFE7BDF82E0000F01F00ADF843
:104D20002E00FFE7FFE72AE041F67000C0F208001E
:104D30007D210DF12E02FFF7AFFD0A900A9838B1E0
:104D4000FFE74FF4487009901920ADF82E0015E0E8
:104D50000698162811D3FFE79DF81700C00728B161
:104D6000FFE79DF82F00ADF82E00FFE7BDF82E00FD
:104D700000F01F00ADF82E00FFE7FFE7FFE7BDF8EA
:104D80002C00BDF82E1088421DDBFFE70D9945F27F
:104D9000AC70C0F21200405CFFF7B2FD0A900A98B6
:104DA00080B1FFE7099840F4487009900D9945F2E9
:104DB000A570C0F21200405C41F21431C4F200014F
:104DC0000870FFE712E0099840F44C7009906920E0
:104DD000FFF796FD0A900A9838B1FFE741F21431C7
:104DE000C4F200011E200870FFE7FFE753E041F620
:104DF0007000C0F2080078210DF12E02FFF74CFD83
:104E00000A900A9840B1FFE7099840F44870099069
:104E10001420ADF82E0015E00698162811D3FFE7F0
:104E20009DF81700C00728B1FFE79DF82F00ADF8E7
:104E30002E00FFE7BDF82E0000F01F00ADF82E0099
:104E4000FFE7FFE7BDF82C00BDF82E1088420EDB0F
:104E5000FFE70D9945F2AC70C0F21200405C0021F2
:104E6000FFF78AFD014609980843099012E0099866
:104E700040F44C7009906920FFF742FD0A900A98AF
:104E800038B1FFE741F21431C4F200011E2008706E
:104E9000FFE7FFE7FFE742F21070FFF789FC41F2FE
:104EA0000020C4F200000068079007984FF47A7160
:104EB0004843400B0790BDF82C00BDF82E108842E7
:104EC0001DDBFFE707980D9A45F2AC71C0F21201A5
:104ED000895C01EB8102192101EB420188420DD26C
:104EE000FFE70D9828B9FFE7099840F44C70099046
:104EF00003E001208DF82300FFE7FFE70CE00D98A9
:104F000028B9FFE7099840F44C70099003E00120AC
:104F10008DF82300FFE7FFE70020FFF7F3FB9DF884
:104F2000210041F25831C4F20001086003E0012081
:104F30008DF82300FFE7FFE7FFE79DF82300012836
:104F400037D1FFE76E20FFF7DBFC0A908E21C4F219
:104F50000101F02008700A9850B1FFE74FF4487043
:104F6000099041F21431C4F2000123200870FFE7D8
:104F70000D9945F2AC70C0F21200405C0121009125
:104F8000FFF7FAFC0246009809991143099141F292
:104F90000832C4F200020321117046F22031C4F23B
:104FA0000221086046F23031C4F20221002008607C
:104FB00016E08E21C4F201017320087041F208311D
:104FC000C4F200010020087046F22031C4F2022130
:104FD000086046F23031C4F2022101200860FFE788
:104FE00009980EB080BD000080B584B00390029196
:104FF00001925820036803980299019A984704B0D7
:1050000080BD000080B584B00390029101925820C9
:10501000036803980299019A984704B080BD000084
:1050200040F20431C4F200014EF21120C0F2B1206E
:105030000860704740F20431C4F200014EF21120C2
:10504000C0F2B1200860704780B586B040F2001011
:10505000C4F2000000680590059800F007000146C2
:105060000191042842D80199DFE801F03F030B1BAE
:105070002D0040F20001C2F200014FF40040086030
:105080008EE0BF20C4F20100017846F60040C0F275
:10509000DC20B0FBF1F040F20001C2F20001086038
:1050A0007EE040F20110C4F200000078411C46F698
:1050B0000040C0F2DC20B0FBF1F040F20001C2F28F
:1050C000000108606CE040F20210C4F200000078B9
:1050D000411C46F60040C0F2DC20B0FBF1F040F28B
:1050E0000001C2F2000108605AE0FFE741F22030FF
:1050F000C4F200000068C0F305208DF80D0046F2F0
:105100004840C4F202200068012824D1FFE79DF83E
:105110000D1041F6B000C0F208000DF10E0200F0D3
:1051200059F90290029858B9FFE7BDF80E004FF404
:105130007A71484340F20001C2F20001086009E0C0
:1051400040F20001C2F2000142F20040C0F2F4005D
:105150000860FFE723E09DF80D1041F69000C0F2D3
:1051600008000DF10E0200F035F90290029858B9CE
:10517000FFE7BDF80E004FF47A71484340F200019A
:10518000C2F20001086009E040F20001C2F2000131
:1051900044F64030C0F24C000860FFE7FFE7FFE74D
:1051A00040F20000C2F20000006844F24021C0F268
:1051B0000F01884208D8FFE740F20411C4F2000151
:1051C000002008700490D7E040F20000C2F2000016
:1051D000006848F28041C0F21E01884209D8FFE70A
:1051E00040F20411C4F20001012008700020049074
:1051F000C1E040F20000C2F2000000684CF2C06161
:10520000C0F22D01884209D8FFE740F20411C4F230
:1052100000010220087000200490ABE040F2000082
:10522000C2F20000006844F64031C0F24C018842EE
:1052300009D8FFE740F20411C4F20001042008700D
:105240000220049095E040F20000C2F200000068E5
:1052500041F20021C0F27A01884209D8FFE740F20A
:105260000411C4F2000107200870032004907FE0BD
:1052700040F20000C2F20000006849F28061C0F212
:105280009801884209D8FFE740F20411C4F20001F6
:10529000092008700520049069E040F20000C2F285
:1052A0000000006841F60031C0F2B701884209D819
:1052B000FFE740F20411C4F200010B200870052042
:1052C000049053E040F20000C2F20000006842F295
:1052D0000041C0F2F401884212D8FFE740F2041105
:1052E000C4F200010F2008709DF81400400718B99F
:1052F000FFE70720049002E006200490FFE734E077
:1053000040F20000C2F20000006842F60051C0F214
:105310003111884209D8FFE740F20411C4F20001BC
:1053200013200870072004901EE040F20000C2F233
:105330000000006843F20061C0F26E11884209D893
:10534000FFE740F20411C4F20001172008700820A2
:10535000049008E040F20411C4F200012F2008700C
:1053600009200490FFE7FFE7FFE7FFE7FFE7FFE71C
:10537000FFE7FFE7FFE7FFE740F21051C4F200014B
:10538000086820F00F00049A1043086006B080BD42
:1053900040F20000C2F20000006846F2A811884204
:1053A0000CD3FFE740F20000C2F20000006846F6AE
:1053B0000141C0F2DC2188420AD3FFE740F200013C
:1053C000C2F2000144F64030C0F24C000860FFE732
:1053D0007047000080B58AB008908DF81F100692C3
:1053E0000898042101AAFFF70DFE0090009818B15B
:1053F000FFE70098099027E000208DF81700FFE7ED
:105400009DF8170003281CDCFFE79DF8171001A882
:1054100010F821009DF81F1088420BD1FFE79DF87E
:10542000171001A800EB8100408806990880002031
:10543000099009E0FFE79DF8170001308DF817008B
:10544000DEE701200990FFE709980AB080BD00005F
:1054500081B08DF803009DF90300002812D4FFE706
:105460009DF9031001F01F02012090404A094EF2FD
:105470008011CEF2000141F82200BFF34F8FBFF33D
:105480006F8FFFE701B0704781B08DF803009DF981
:10549000030000280ED4FFE79DF9031001F01F025E
:1054A000012090404A094EF20011CEF2000141F86D
:1054B0002200FFE701B0704781B08DF803009DF92D
:1054C000030000280ED4FFE79DF9031001F01F022E
:1054D000012090404A094EF20011CEF2000141F83D
:1054E0002200FFE701B0704700207047002070479E
:1054F00008B50A79012108F0B1FF002008BD38B5D0
:105500000D46044606F068FC6988814228BF0146C2
:10551000204689B209F06EF80121204608F05CFBB4
:105520000128014608BF002220461CBF412201215C
:1055300008F094FF002038BD10B50121044608F0A2
:105540004BFB0C2803D00F2811D0412209E0012188
:10555000204608F04BFB428903899A4214BF52222D
:1055600000222046012108F079FF002010BD002212
:10557000F7E72DE9F84F89460121054608F02CFB95
:10558000032850D10121284608F030FB4FF6FF7464
:10559000064600274FEA052A4AF0070A00F1080BE1
:1055A000B9F80230BB420BD8F3880134A4B2A3424D
:1055B00000D384BB0A220121284608F04FFF2FE0C8
:1055C0000121284608F01AFB73780146524606333B
:1055D00040F604400CF056FD804609EB0702517975
:1055E0001379053043EA012320F8053CBB1C9BB22C
:1055F0004B445A791C79594644EA022420F8034C5A
:105600007278043700F8012CFAF740FE4046BFB22A
:105610000CF062FDC4E701212846B48008F0A8FE22
:105620000020BDE8F88F4022C5E72DE9F74F0E4670
:105630000121054608F0D0FA072854D10121284657
:1056400008F0D4FA002473788046012B0CBF4FF089
:1056500002094FF0100927464FEA052A4AF0070AC7
:1056600009F1040B7388BB420CD8B8F8063001343A
:10567000A4B2A34200D364BB0A220121284608F049
:10568000EDFE2CE00121284608F0B8FA5B46014601
:10569000524640F607400CF0F5FC0346F2195179EA
:1056A0001479033044EA0124B91C89B204314A4612
:1056B00020F8034C00F8019C31440193FAF7E6FD11
:1056C000019B09F1020217441846BFB20CF004FD19
:1056D000C8E701212846A8F8044008F049FE002048
:1056E00003B0BDE8F08F4022C7E7000038B502469E
:1056F00040F60C4340F60D400C4609781B2908BFC4
:105700001846164B618853F822305B690BB90421A7
:1057100006E09D888D421FD8DD888D421CD31989F3
:10572000A388120206339BB242F007020CF0AAFCD7
:10573000237805461B2B0CBF122313230370A2886A
:10574000638842808380A11D0630FAF79FFD2846BA
:105750000CF0C2FC002038BD1B68D7E7E40900202C
:10576000002370B504461E460D46104A097A10788B
:105770000133884208BF56680E2B02F10802F6D1A9
:105780008EB11D2908D01B2906D0210240F61C40ED
:1057900041F007010CF000FE2046334605F10801F8
:1057A000BDE870401847FF2070BD00BF10421200D6
:1057B0002DE9F04188460121074608F00DFA0C2832
:1057C00025D10121384608F011FAB8F80420C6881E
:1057D000B8F80640921B96B206F10C0105464681C8
:1057E0000144224608F10800FAF776FD60B92B89DA
:1057F000A2199A4208DC92B2012138466A8108F067
:10580000B7FD0020BDE8F0814FF6FF72F4E74122BA
:105810000121384608F022FEF3E72DE9F74F4C88C6
:1058200091F801800E460121074608F0D5F90228BB
:10583000054676D1B4FBF8F4002C72D0012138462D
:1058400008F0D4F94FF0000B73788146142B08BF91
:1058500010255C46DA463B0243F007030093AB1D7C
:10586000DBB201937388534552D9BBF1000F52D17B
:105870004FF6FF739C4211D1B9F806300134A4B23F
:10588000A34248D3002C46D001213846A9F8044051
:1058900008F06EFD002003B0BDE8F08F012138460E
:1058A00008F0ACF9DDE90023014640F604400CF0B5
:1058B000E9FB06EB0A025179137900F1050B43EA83
:1058C000012303800AF102039BB233445A791C7905
:1058D0000AF1040189B244EA0224043180462A46CE
:1058E0004480057131445846FAF7D0FC2B1DDBB2D9
:1058F000294658469A4409F1080299F8013000F007
:10590000A7FD834640461FFA8AFA0CF0E5FBA9E79B
:10591000BBF1000FB0D000220121384608F09EFDF7
:10592000B8E74122F8E700002DE9F04F0C4685B0BA
:105930000121054608F050F9062805D8042830D87A
:1059400000F0A28040224AE00A28FBD1284666786F
:1059500008F03AF9023886424FF00101284680F2F9
:105960000F8108F04BF963782A020146043342F0B4
:10597000070240F609400CF085FB00260746A38885
:10598000A11D038062780630023A92B220F8022C00
:1059900020F8046CFAF77AFC38460CF09DFB32468E
:1059A0001DE00121284608F021F900276378804690
:1059B000072B8CBF4FF010094FF002093E464FEA0B
:1059C000052A4AF0070A09F1060B6388B3420BD88F
:1059D000B8F806300137BFB2BB424CD20A220121CF
:1059E000284608F03BFDC9E0A3195A791F7998F8B9
:1059F000003047EA0227052B2DD10121284608F067
:105A0000FDF85B460146524640F606400CF03AFB74
:105A10000346B21C92B2078022441279063000F885
:105A2000022CF21C92B22244517905361279B6B298
:105A300042EA0122311D20F8042C00F8019C4A465C
:105A400021440293FAF722FC029B4E441846B6B258
:105A50000CF042FBB9E706F10900494698F801301D
:105A600008F10802204400F0F3FC0028C5D1637857
:105A70001E44B6B2A9E7002FB0D0A8F804700121E7
:105A8000284608F075FC79E00121284608F0AEF8B8
:105A90006388002603F00703002B15BF00230123B2
:105AA0004FF0100A4FF0020A029380463346374601
:105AB0004FEA052949F007090AF1080B6288BA4242
:105AC0000ED8029A0AB9002E4AD1B8F8062001333E
:105AD0009BB29A4282D3002B80D0A8F80430CEE744
